{
  "_format": "hh-sol-artifact-1",
  "contractName": "Proxy",
  "sourceName": "contracts/Proxy.sol",
  "abi": [
    {
      "inputs": [
        {
          "internalType": "address",
          "name": "target",
          "type": "address"
        }
      ],
      "name": "AddressEmptyCode",
      "type": "error"
    },
    {
      "inputs": [
        {
          "internalType": "address",
          "name": "implementation",
          "type": "address"
        }
      ],
      "name": "ERC1967InvalidImplementation",
      "type": "error"
    },
    {
      "inputs": [],
      "name": "ERC1967NonPayable",
      "type": "error"
    },
    {
      "inputs": [
        {
          "internalType": "address",
          "name": "sender",
          "type": "address"
        },
        {
          "internalType": "uint256",
          "name": "tokenId",
          "type": "uint256"
        },
        {
          "internalType": "address",
          "name": "owner",
          "type": "address"
        }
      ],
      "name": "ERC721IncorrectOwner",
      "type": "error"
    },
    {
      "inputs": [
        {
          "internalType": "address",
          "name": "operator",
          "type": "address"
        },
        {
          "internalType": "uint256",
          "name": "tokenId",
          "type": "uint256"
        }
      ],
      "name": "ERC721InsufficientApproval",
      "type": "error"
    },
    {
      "inputs": [
        {
          "internalType": "address",
          "name": "approver",
          "type": "address"
        }
      ],
      "name": "ERC721InvalidApprover",
      "type": "error"
    },
    {
      "inputs": [
        {
          "internalType": "address",
          "name": "operator",
          "type": "address"
        }
      ],
      "name": "ERC721InvalidOperator",
      "type": "error"
    },
    {
      "inputs": [
        {
          "internalType": "address",
          "name": "owner",
          "type": "address"
        }
      ],
      "name": "ERC721InvalidOwner",
      "type": "error"
    },
    {
      "inputs": [
        {
          "internalType": "address",
          "name": "receiver",
          "type": "address"
        }
      ],
      "name": "ERC721InvalidReceiver",
      "type": "error"
    },
    {
      "inputs": [
        {
          "internalType": "address",
          "name": "sender",
          "type": "address"
        }
      ],
      "name": "ERC721InvalidSender",
      "type": "error"
    },
    {
      "inputs": [
        {
          "internalType": "uint256",
          "name": "tokenId",
          "type": "uint256"
        }
      ],
      "name": "ERC721NonexistentToken",
      "type": "error"
    },
    {
      "inputs": [],
      "name": "FailedInnerCall",
      "type": "error"
    },
    {
      "inputs": [],
      "name": "InvalidInitialization",
      "type": "error"
    },
    {
      "inputs": [],
      "name": "NotInitializing",
      "type": "error"
    },
    {
      "inputs": [
        {
          "internalType": "address",
          "name": "owner",
          "type": "address"
        }
      ],
      "name": "OwnableInvalidOwner",
      "type": "error"
    },
    {
      "inputs": [
        {
          "internalType": "address",
          "name": "account",
          "type": "address"
        }
      ],
      "name": "OwnableUnauthorizedAccount",
      "type": "error"
    },
    {
      "inputs": [],
      "name": "UUPSUnauthorizedCallContext",
      "type": "error"
    },
    {
      "inputs": [
        {
          "internalType": "bytes32",
          "name": "slot",
          "type": "bytes32"
        }
      ],
      "name": "UUPSUnsupportedProxiableUUID",
      "type": "error"
    },
    {
      "anonymous": false,
      "inputs": [
        {
          "indexed": true,
          "internalType": "address",
          "name": "owner",
          "type": "address"
        },
        {
          "indexed": true,
          "internalType": "address",
          "name": "approved",
          "type": "address"
        },
        {
          "indexed": true,
          "internalType": "uint256",
          "name": "tokenId",
          "type": "uint256"
        }
      ],
      "name": "Approval",
      "type": "event"
    },
    {
      "anonymous": false,
      "inputs": [
        {
          "indexed": true,
          "internalType": "address",
          "name": "owner",
          "type": "address"
        },
        {
          "indexed": true,
          "internalType": "address",
          "name": "operator",
          "type": "address"
        },
        {
          "indexed": false,
          "internalType": "bool",
          "name": "approved",
          "type": "bool"
        }
      ],
      "name": "ApprovalForAll",
      "type": "event"
    },
    {
      "anonymous": false,
      "inputs": [
        {
          "indexed": false,
          "internalType": "uint256",
          "name": "_fromTokenId",
          "type": "uint256"
        },
        {
          "indexed": false,
          "internalType": "uint256",
          "name": "_toTokenId",
          "type": "uint256"
        }
      ],
      "name": "BatchMetadataUpdate",
      "type": "event"
    },
    {
      "anonymous": false,
      "inputs": [
        {
          "indexed": false,
          "internalType": "uint64",
          "name": "version",
          "type": "uint64"
        }
      ],
      "name": "Initialized",
      "type": "event"
    },
    {
      "anonymous": false,
      "inputs": [
        {
          "indexed": false,
          "internalType": "uint256",
          "name": "_tokenId",
          "type": "uint256"
        }
      ],
      "name": "MetadataUpdate",
      "type": "event"
    },
    {
      "anonymous": false,
      "inputs": [
        {
          "indexed": false,
          "internalType": "uint256",
          "name": "tokenId",
          "type": "uint256"
        },
        {
          "indexed": false,
          "internalType": "address",
          "name": "creator",
          "type": "address"
        },
        {
          "indexed": false,
          "internalType": "uint256",
          "name": "paymentAmount",
          "type": "uint256"
        }
      ],
      "name": "MintERC721",
      "type": "event"
    },
    {
      "anonymous": false,
      "inputs": [
        {
          "indexed": true,
          "internalType": "address",
          "name": "previousOwner",
          "type": "address"
        },
        {
          "indexed": true,
          "internalType": "address",
          "name": "newOwner",
          "type": "address"
        }
      ],
      "name": "OwnershipTransferred",
      "type": "event"
    },
    {
      "anonymous": false,
      "inputs": [
        {
          "indexed": false,
          "internalType": "uint256",
          "name": "newPrice",
          "type": "uint256"
        }
      ],
      "name": "PaymentPriceUpdated",
      "type": "event"
    },
    {
      "anonymous": false,
      "inputs": [
        {
          "indexed": true,
          "internalType": "address",
          "name": "from",
          "type": "address"
        },
        {
          "indexed": true,
          "internalType": "address",
          "name": "to",
          "type": "address"
        },
        {
          "indexed": true,
          "internalType": "uint256",
          "name": "tokenId",
          "type": "uint256"
        }
      ],
      "name": "Transfer",
      "type": "event"
    },
    {
      "anonymous": false,
      "inputs": [
        {
          "indexed": false,
          "internalType": "address",
          "name": "logicContract",
          "type": "address"
        }
      ],
      "name": "UpdateLogicContract",
      "type": "event"
    },
    {
      "anonymous": false,
      "inputs": [
        {
          "indexed": true,
          "internalType": "address",
          "name": "implementation",
          "type": "address"
        }
      ],
      "name": "Upgraded",
      "type": "event"
    },
    {
      "inputs": [],
      "name": "UPGRADE_INTERFACE_VERSION",
      "outputs": [
        {
          "internalType": "string",
          "name": "",
          "type": "string"
        }
      ],
      "stateMutability": "view",
      "type": "function"
    },
    {
      "inputs": [
        {
          "internalType": "address",
          "name": "to",
          "type": "address"
        },
        {
          "internalType": "uint256",
          "name": "tokenId",
          "type": "uint256"
        }
      ],
      "name": "approve",
      "outputs": [],
      "stateMutability": "nonpayable",
      "type": "function"
    },
    {
      "inputs": [
        {
          "internalType": "address",
          "name": "owner",
          "type": "address"
        }
      ],
      "name": "balanceOf",
      "outputs": [
        {
          "internalType": "uint256",
          "name": "",
          "type": "uint256"
        }
      ],
      "stateMutability": "view",
      "type": "function"
    },
    {
      "inputs": [
        {
          "internalType": "uint256",
          "name": "tokenId",
          "type": "uint256"
        }
      ],
      "name": "getApproved",
      "outputs": [
        {
          "internalType": "address",
          "name": "",
          "type": "address"
        }
      ],
      "stateMutability": "view",
      "type": "function"
    },
    {
      "inputs": [],
      "name": "getLogicContract",
      "outputs": [
        {
          "internalType": "address",
          "name": "",
          "type": "address"
        }
      ],
      "stateMutability": "view",
      "type": "function"
    },
    {
      "inputs": [],
      "name": "getPaymentPrice",
      "outputs": [
        {
          "internalType": "uint256",
          "name": "",
          "type": "uint256"
        }
      ],
      "stateMutability": "view",
      "type": "function"
    },
    {
      "inputs": [
        {
          "internalType": "address",
          "name": "_paymentToken",
          "type": "address"
        },
        {
          "internalType": "uint256",
          "name": "_paymentPrice",
          "type": "uint256"
        },
        {
          "internalType": "address",
          "name": "_paymentLogic",
          "type": "address"
        }
      ],
      "name": "initialize",
      "outputs": [],
      "stateMutability": "nonpayable",
      "type": "function"
    },
    {
      "inputs": [
        {
          "internalType": "address",
          "name": "owner",
          "type": "address"
        },
        {
          "internalType": "address",
          "name": "operator",
          "type": "address"
        }
      ],
      "name": "isApprovedForAll",
      "outputs": [
        {
          "internalType": "bool",
          "name": "",
          "type": "bool"
        }
      ],
      "stateMutability": "view",
      "type": "function"
    },
    {
      "inputs": [
        {
          "internalType": "address",
          "name": "recipient",
          "type": "address"
        },
        {
          "internalType": "string",
          "name": "tokenURI",
          "type": "string"
        }
      ],
      "name": "mintNFT",
      "outputs": [
        {
          "internalType": "uint256",
          "name": "",
          "type": "uint256"
        }
      ],
      "stateMutability": "nonpayable",
      "type": "function"
    },
    {
      "inputs": [],
      "name": "name",
      "outputs": [
        {
          "internalType": "string",
          "name": "",
          "type": "string"
        }
      ],
      "stateMutability": "view",
      "type": "function"
    },
    {
      "inputs": [],
      "name": "nextTokenId",
      "outputs": [
        {
          "internalType": "uint256",
          "name": "",
          "type": "uint256"
        }
      ],
      "stateMutability": "view",
      "type": "function"
    },
    {
      "inputs": [],
      "name": "owner",
      "outputs": [
        {
          "internalType": "address",
          "name": "",
          "type": "address"
        }
      ],
      "stateMutability": "view",
      "type": "function"
    },
    {
      "inputs": [
        {
          "internalType": "uint256",
          "name": "tokenId",
          "type": "uint256"
        }
      ],
      "name": "ownerOf",
      "outputs": [
        {
          "internalType": "address",
          "name": "",
          "type": "address"
        }
      ],
      "stateMutability": "view",
      "type": "function"
    },
    {
      "inputs": [],
      "name": "paymentLogic",
      "outputs": [
        {
          "internalType": "address",
          "name": "",
          "type": "address"
        }
      ],
      "stateMutability": "view",
      "type": "function"
    },
    {
      "inputs": [],
      "name": "paymentPrice",
      "outputs": [
        {
          "internalType": "uint256",
          "name": "",
          "type": "uint256"
        }
      ],
      "stateMutability": "view",
      "type": "function"
    },
    {
      "inputs": [],
      "name": "paymentToken",
      "outputs": [
        {
          "internalType": "contract ERC20Upgradeable",
          "name": "",
          "type": "address"
        }
      ],
      "stateMutability": "view",
      "type": "function"
    },
    {
      "inputs": [],
      "name": "proxiableUUID",
      "outputs": [
        {
          "internalType": "bytes32",
          "name": "",
          "type": "bytes32"
        }
      ],
      "stateMutability": "view",
      "type": "function"
    },
    {
      "inputs": [],
      "name": "renounceOwnership",
      "outputs": [],
      "stateMutability": "nonpayable",
      "type": "function"
    },
    {
      "inputs": [
        {
          "internalType": "address",
          "name": "from",
          "type": "address"
        },
        {
          "internalType": "address",
          "name": "to",
          "type": "address"
        },
        {
          "internalType": "uint256",
          "name": "tokenId",
          "type": "uint256"
        }
      ],
      "name": "safeTransferFrom",
      "outputs": [],
      "stateMutability": "nonpayable",
      "type": "function"
    },
    {
      "inputs": [
        {
          "internalType": "address",
          "name": "from",
          "type": "address"
        },
        {
          "internalType": "address",
          "name": "to",
          "type": "address"
        },
        {
          "internalType": "uint256",
          "name": "tokenId",
          "type": "uint256"
        },
        {
          "internalType": "bytes",
          "name": "data",
          "type": "bytes"
        }
      ],
      "name": "safeTransferFrom",
      "outputs": [],
      "stateMutability": "nonpayable",
      "type": "function"
    },
    {
      "inputs": [
        {
          "internalType": "address",
          "name": "operator",
          "type": "address"
        },
        {
          "internalType": "bool",
          "name": "approved",
          "type": "bool"
        }
      ],
      "name": "setApprovalForAll",
      "outputs": [],
      "stateMutability": "nonpayable",
      "type": "function"
    },
    {
      "inputs": [
        {
          "internalType": "bytes4",
          "name": "interfaceId",
          "type": "bytes4"
        }
      ],
      "name": "supportsInterface",
      "outputs": [
        {
          "internalType": "bool",
          "name": "",
          "type": "bool"
        }
      ],
      "stateMutability": "view",
      "type": "function"
    },
    {
      "inputs": [],
      "name": "symbol",
      "outputs": [
        {
          "internalType": "string",
          "name": "",
          "type": "string"
        }
      ],
      "stateMutability": "view",
      "type": "function"
    },
    {
      "inputs": [],
      "name": "testDelegateCall",
      "outputs": [
        {
          "internalType": "bool",
          "name": "",
          "type": "bool"
        }
      ],
      "stateMutability": "nonpayable",
      "type": "function"
    },
    {
      "inputs": [
        {
          "internalType": "uint256",
          "name": "tokenId",
          "type": "uint256"
        }
      ],
      "name": "tokenURI",
      "outputs": [
        {
          "internalType": "string",
          "name": "",
          "type": "string"
        }
      ],
      "stateMutability": "view",
      "type": "function"
    },
    {
      "inputs": [
        {
          "internalType": "address",
          "name": "from",
          "type": "address"
        },
        {
          "internalType": "address",
          "name": "to",
          "type": "address"
        },
        {
          "internalType": "uint256",
          "name": "tokenId",
          "type": "uint256"
        }
      ],
      "name": "transferFrom",
      "outputs": [],
      "stateMutability": "nonpayable",
      "type": "function"
    },
    {
      "inputs": [
        {
          "internalType": "address",
          "name": "newOwner",
          "type": "address"
        }
      ],
      "name": "transferOwnership",
      "outputs": [],
      "stateMutability": "nonpayable",
      "type": "function"
    },
    {
      "inputs": [
        {
          "internalType": "address",
          "name": "_paymentLogic",
          "type": "address"
        }
      ],
      "name": "updateLogicContract",
      "outputs": [],
      "stateMutability": "nonpayable",
      "type": "function"
    },
    {
      "inputs": [],
      "name": "updatePaymentPrice",
      "outputs": [],
      "stateMutability": "nonpayable",
      "type": "function"
    },
    {
      "inputs": [
        {
          "internalType": "address",
          "name": "newImplementation",
          "type": "address"
        },
        {
          "internalType": "bytes",
          "name": "data",
          "type": "bytes"
        }
      ],
      "name": "upgradeToAndCall",
      "outputs": [],
      "stateMutability": "payable",
      "type": "function"
    }
  ],
  "bytecode": "0x60a06040523073ffffffffffffffffffffffffffffffffffffffff1660809073ffffffffffffffffffffffffffffffffffffffff1681525034801561004357600080fd5b50608051613fd261006d60003960008181611b7001528181611bc50152611d800152613fd26000f3fe6080604052600436106101cd5760003560e01c806375794a3c116100f7578063c350a1b511610095578063eacabe1411610064578063eacabe141461066b578063ead669c5146106a8578063ee4d8a9e146106bf578063f2fde38b146106ea576101cd565b8063c350a1b51461059d578063c87b56dd146105c6578063e1e3634114610603578063e985e9c51461062e576101cd565b806395d89b41116100d157806395d89b41146104f5578063a22cb46514610520578063ad3cb1cc14610549578063b88d4fde14610574576101cd565b806375794a3c146104745780638b18c7e31461049f5780638da5cb5b146104ca576101cd565b80634d2d63301161016f5780636352211e1161013e5780636352211e146103b857806370a08231146103f5578063715018a614610432578063745d4c0114610449576101cd565b80634d2d63301461031d5780634f1ef2861461034657806352d1902d146103625780635fe1dd181461038d576101cd565b8063095ea7b3116101ab578063095ea7b31461027757806323b872dd146102a05780633013ce29146102c957806342842e0e146102f4576101cd565b806301ffc9a7146101d257806306fdde031461020f578063081812fc1461023a575b600080fd5b3480156101de57600080fd5b506101f960048036038101906101f49190612fa7565b610713565b6040516102069190612fef565b60405180910390f35b34801561021b57600080fd5b50610224610774565b604051610231919061309a565b60405180910390f35b34801561024657600080fd5b50610261600480360381019061025c91906130f2565b610815565b60405161026e9190613160565b60405180910390f35b34801561028357600080fd5b5061029e600480360381019061029991906131a7565b610831565b005b3480156102ac57600080fd5b506102c760048036038101906102c291906131e7565b610847565b005b3480156102d557600080fd5b506102de610949565b6040516102eb9190613299565b60405180910390f35b34801561030057600080fd5b5061031b600480360381019061031691906131e7565b61096f565b005b34801561032957600080fd5b50610344600480360381019061033f91906132b4565b61098f565b005b610360600480360381019061035b9190613416565b610ac4565b005b34801561036e57600080fd5b50610377610ae3565b604051610384919061348b565b60405180910390f35b34801561039957600080fd5b506103a2610b16565b6040516103af91906134b5565b60405180910390f35b3480156103c457600080fd5b506103df60048036038101906103da91906130f2565b610b1f565b6040516103ec9190613160565b60405180910390f35b34801561040157600080fd5b5061041c600480360381019061041791906132b4565b610b31565b60405161042991906134b5565b60405180910390f35b34801561043e57600080fd5b50610447610bfa565b005b34801561045557600080fd5b5061045e610c0e565b60405161046b9190613160565b60405180910390f35b34801561048057600080fd5b50610489610c34565b60405161049691906134b5565b60405180910390f35b3480156104ab57600080fd5b506104b4610c3a565b6040516104c19190613160565b60405180910390f35b3480156104d657600080fd5b506104df610c64565b6040516104ec9190613160565b60405180910390f35b34801561050157600080fd5b5061050a610c9c565b604051610517919061309a565b60405180910390f35b34801561052c57600080fd5b50610547600480360381019061054291906134fc565b610d3d565b005b34801561055557600080fd5b5061055e610d53565b60405161056b919061309a565b60405180910390f35b34801561058057600080fd5b5061059b6004803603810190610596919061353c565b610d8c565b005b3480156105a957600080fd5b506105c460048036038101906105bf91906135bf565b610da9565b005b3480156105d257600080fd5b506105ed60048036038101906105e891906130f2565b611058565b6040516105fa919061309a565b60405180910390f35b34801561060f57600080fd5b5061061861117c565b6040516106259190612fef565b60405180910390f35b34801561063a57600080fd5b5061065560048036038101906106509190613612565b61129c565b6040516106629190612fef565b60405180910390f35b34801561067757600080fd5b50610692600480360381019061068d91906136f3565b61133e565b60405161069f91906134b5565b60405180910390f35b3480156106b457600080fd5b506106bd61149d565b005b3480156106cb57600080fd5b506106d4611630565b6040516106e191906134b5565b60405180910390f35b3480156106f657600080fd5b50610711600480360381019061070c91906132b4565b611636565b005b6000634906490660e01b7bffffffffffffffffffffffffffffffffffffffffffffffffffffffff1916827bffffffffffffffffffffffffffffffffffffffffffffffffffffffff1916148061076d575061076c826116bc565b5b9050919050565b6060600061078061179e565b90508060000180546107919061377e565b80601f01602080910402602001604051908101604052809291908181526020018280546107bd9061377e565b801561080a5780601f106107df5761010080835404028352916020019161080a565b820191906000526020600020905b8154815290600101906020018083116107ed57829003601f168201915b505050505091505090565b6000610820826117c6565b5061082a8261184e565b9050919050565b610843828261083e611899565b6118a8565b5050565b600073ffffffffffffffffffffffffffffffffffffffff168273ffffffffffffffffffffffffffffffffffffffff16036108b95760006040517f64a0ae920000000000000000000000000000000000000000000000000000000081526004016108b09190613160565b60405180910390fd5b60006108cd83836108c8611899565b6118ba565b90508373ffffffffffffffffffffffffffffffffffffffff168173ffffffffffffffffffffffffffffffffffffffff1614610943578382826040517f64283d7b00000000000000000000000000000000000000000000000000000000815260040161093a939291906137af565b60405180910390fd5b50505050565b600360009054906101000a900473ffffffffffffffffffffffffffffffffffffffff1681565b61098a83838360405180602001604052806000815250610d8c565b505050565b610997611ae7565b8073ffffffffffffffffffffffffffffffffffffffff16600260009054906101000a900473ffffffffffffffffffffffffffffffffffffffff1673ffffffffffffffffffffffffffffffffffffffff1603610a27576040517f08c379a0000000000000000000000000000000000000000000000000000000008152600401610a1e90613858565b60405180910390fd5b80600260006101000a81548173ffffffffffffffffffffffffffffffffffffffff021916908373ffffffffffffffffffffffffffffffffffffffff1602179055507fdc1b03aa7118707aafb4044faaf6670a730f5cf9db870157f5ce90ad6c9df4ea600260009054906101000a900473ffffffffffffffffffffffffffffffffffffffff16604051610ab99190613160565b60405180910390a150565b610acc611b6e565b610ad582611c54565b610adf8282611c5f565b5050565b6000610aed611d7e565b7f360894a13ba1a3210667c828492db98dca3e2076cc3735a920a3ca505d382bbc60001b905090565b60008054905090565b6000610b2a826117c6565b9050919050565b600080610b3c61179e565b9050600073ffffffffffffffffffffffffffffffffffffffff168373ffffffffffffffffffffffffffffffffffffffff1603610bb05760006040517f89c62b64000000000000000000000000000000000000000000000000000000008152600401610ba79190613160565b60405180910390fd5b8060030160008473ffffffffffffffffffffffffffffffffffffffff1673ffffffffffffffffffffffffffffffffffffffff16815260200190815260200160002054915050919050565b610c02611ae7565b610c0c6000611e05565b565b600260009054906101000a900473ffffffffffffffffffffffffffffffffffffffff1681565b60015481565b6000600260009054906101000a900473ffffffffffffffffffffffffffffffffffffffff16905090565b600080610c6f611edc565b90508060000160009054906101000a900473ffffffffffffffffffffffffffffffffffffffff1691505090565b60606000610ca861179e565b9050806001018054610cb99061377e565b80601f0160208091040260200160405190810160405280929190818152602001828054610ce59061377e565b8015610d325780601f10610d0757610100808354040283529160200191610d32565b820191906000526020600020905b815481529060010190602001808311610d1557829003601f168201915b505050505091505090565b610d4f610d48611899565b8383611f04565b5050565b6040518060400160405280600581526020017f352e302e3000000000000000000000000000000000000000000000000000000081525081565b610d97848484610847565b610da384848484612082565b50505050565b6000610db3612239565b905060008160000160089054906101000a900460ff1615905060008260000160009054906101000a900467ffffffffffffffff1690506000808267ffffffffffffffff16148015610e015750825b9050600060018367ffffffffffffffff16148015610e36575060003073ffffffffffffffffffffffffffffffffffffffff163b145b905081158015610e44575080155b15610e7b576040517ff92ee8a900000000000000000000000000000000000000000000000000000000815260040160405180910390fd5b60018560000160006101000a81548167ffffffffffffffff021916908367ffffffffffffffff1602179055508315610ecb5760018560000160086101000a81548160ff0219169083151502179055505b610f3f6040518060400160405280600481526020017f4954454d000000000000000000000000000000000000000000000000000000008152506040518060400160405280600381526020017f4e46540000000000000000000000000000000000000000000000000000000000815250612261565b610f47612277565b610f4f612281565b610f583361228b565b87600360006101000a81548173ffffffffffffffffffffffffffffffffffffffff021916908373ffffffffffffffffffffffffffffffffffffffff16021790555086600081905550600060018190555085600260006101000a81548173ffffffffffffffffffffffffffffffffffffffff021916908373ffffffffffffffffffffffffffffffffffffffff160217905550610ff233611636565b831561104e5760008560000160086101000a81548160ff0219169083151502179055507fc7f505b2f371ae2175ee4913f4499e1f2633a7b5936321eed1cdaeb6115181d2600160405161104591906138c7565b60405180910390a15b5050505050505050565b6060600061106461229f565b905061106f836117c6565b50600081600001600085815260200190815260200160002080546110929061377e565b80601f01602080910402602001604051908101604052809291908181526020018280546110be9061377e565b801561110b5780601f106110e05761010080835404028352916020019161110b565b820191906000526020600020905b8154815290600101906020018083116110ee57829003601f168201915b50505050509050600061111c6122c7565b9050600081510361113257819350505050611177565b60008251111561116857808260405160200161114f92919061391e565b6040516020818303038152906040529350505050611177565b611171856122de565b93505050505b919050565b6000611186611ae7565b6000600260009054906101000a900473ffffffffffffffffffffffffffffffffffffffff1673ffffffffffffffffffffffffffffffffffffffff166040516024016040516020818303038152906040527fd348b409000000000000000000000000000000000000000000000000000000007bffffffffffffffffffffffffffffffffffffffffffffffffffffffff19166020820180517bffffffffffffffffffffffffffffffffffffffffffffffffffffffff83818316178352505050506040516112519190613989565b600060405180830381855af49150503d806000811461128c576040519150601f19603f3d011682016040523d82523d6000602084013e611291565b606091505b505090508091505090565b6000806112a761179e565b90508060050160008573ffffffffffffffffffffffffffffffffffffffff1673ffffffffffffffffffffffffffffffffffffffff16815260200190815260200160002060008473ffffffffffffffffffffffffffffffffffffffff1673ffffffffffffffffffffffffffffffffffffffff16815260200190815260200160002060009054906101000a900460ff1691505092915050565b6000600360009054906101000a900473ffffffffffffffffffffffffffffffffffffffff1673ffffffffffffffffffffffffffffffffffffffff166323b872dd33306000546040518463ffffffff1660e01b81526004016113a1939291906139a0565b6020604051808303816000875af11580156113c0573d6000803e3d6000fd5b505050506040513d601f19601f820116820180604052508101906113e491906139ec565b611423576040517f08c379a000000000000000000000000000000000000000000000000000000000815260040161141a90613a65565b60405180910390fd5b61142f83600154612347565b61143b60015483612440565b7fc944c309a13a562602929546d511d51494983314457ab0c385bfe653a757feeb6001543360005460405161147293929190613a85565b60405180910390a16001600081548092919061148d90613aeb565b9190505550600154905092915050565b6114a5611ae7565b6000600260009054906101000a900473ffffffffffffffffffffffffffffffffffffffff1673ffffffffffffffffffffffffffffffffffffffff166040516024016040516020818303038152906040527fd348b409000000000000000000000000000000000000000000000000000000007bffffffffffffffffffffffffffffffffffffffffffffffffffffffff19166020820180517bffffffffffffffffffffffffffffffffffffffffffffffffffffffff83818316178352505050506040516115709190613989565b600060405180830381855af49150503d80600081146115ab576040519150601f19603f3d011682016040523d82523d6000602084013e6115b0565b606091505b50509050806115f4576040517f08c379a00000000000000000000000000000000000000000000000000000000081526004016115eb90613b7f565b60405180910390fd5b7f0a0d60154d0f5f0c257a1e7e3a6a4bee1757ff32f4c0364da40df2aad9f7692f60005460405161162591906134b5565b60405180910390a150565b60005481565b61163e611ae7565b600073ffffffffffffffffffffffffffffffffffffffff168173ffffffffffffffffffffffffffffffffffffffff16036116b05760006040517f1e4fbdf70000000000000000000000000000000000000000000000000000000081526004016116a79190613160565b60405180910390fd5b6116b981611e05565b50565b60007f80ac58cd000000000000000000000000000000000000000000000000000000007bffffffffffffffffffffffffffffffffffffffffffffffffffffffff1916827bffffffffffffffffffffffffffffffffffffffffffffffffffffffff1916148061178757507f5b5e139f000000000000000000000000000000000000000000000000000000007bffffffffffffffffffffffffffffffffffffffffffffffffffffffff1916827bffffffffffffffffffffffffffffffffffffffffffffffffffffffff1916145b806117975750611796826124ab565b5b9050919050565b60007f80bb2b638cc20bc4d0a60d66940f3ab4a00c1d7b313497ca82fb0b4ab0079300905090565b6000806117d283612515565b9050600073ffffffffffffffffffffffffffffffffffffffff168173ffffffffffffffffffffffffffffffffffffffff160361184557826040517f7e27328900000000000000000000000000000000000000000000000000000000815260040161183c91906134b5565b60405180910390fd5b80915050919050565b60008061185961179e565b905080600401600084815260200190815260200160002060009054906101000a900473ffffffffffffffffffffffffffffffffffffffff16915050919050565b60006118a3612560565b905090565b6118b58383836001612568565b505050565b6000806118c561179e565b905060006118d285612515565b9050600073ffffffffffffffffffffffffffffffffffffffff168473ffffffffffffffffffffffffffffffffffffffff16146119145761191381858761273c565b5b600073ffffffffffffffffffffffffffffffffffffffff168173ffffffffffffffffffffffffffffffffffffffff16146119a757611956600086600080612568565b60018260030160008373ffffffffffffffffffffffffffffffffffffffff1673ffffffffffffffffffffffffffffffffffffffff168152602001908152602001600020600082825403925050819055505b600073ffffffffffffffffffffffffffffffffffffffff168673ffffffffffffffffffffffffffffffffffffffff1614611a2c5760018260030160008873ffffffffffffffffffffffffffffffffffffffff1673ffffffffffffffffffffffffffffffffffffffff168152602001908152602001600020600082825401925050819055505b8582600201600087815260200190815260200160002060006101000a81548173ffffffffffffffffffffffffffffffffffffffff021916908373ffffffffffffffffffffffffffffffffffffffff160217905550848673ffffffffffffffffffffffffffffffffffffffff168273ffffffffffffffffffffffffffffffffffffffff167fddf252ad1be2c89b69c2b068fc378daa952ba7f163c4a11628f55a4df523b3ef60405160405180910390a480925050509392505050565b611aef611899565b73ffffffffffffffffffffffffffffffffffffffff16611b0d610c64565b73ffffffffffffffffffffffffffffffffffffffff1614611b6c57611b30611899565b6040517f118cdaa7000000000000000000000000000000000000000000000000000000008152600401611b639190613160565b60405180910390fd5b565b7f000000000000000000000000000000000000000000000000000000000000000073ffffffffffffffffffffffffffffffffffffffff163073ffffffffffffffffffffffffffffffffffffffff161480611c1b57507f000000000000000000000000000000000000000000000000000000000000000073ffffffffffffffffffffffffffffffffffffffff16611c02612800565b73ffffffffffffffffffffffffffffffffffffffff1614155b15611c52576040517fe07c8dba00000000000000000000000000000000000000000000000000000000815260040160405180910390fd5b565b611c5c611ae7565b50565b8173ffffffffffffffffffffffffffffffffffffffff166352d1902d6040518163ffffffff1660e01b8152600401602060405180830381865afa925050508015611cc757506040513d601f19601f82011682018060405250810190611cc49190613bcb565b60015b611d0857816040517f4c9c8ce3000000000000000000000000000000000000000000000000000000008152600401611cff9190613160565b60405180910390fd5b7f360894a13ba1a3210667c828492db98dca3e2076cc3735a920a3ca505d382bbc60001b8114611d6f57806040517faa1d49a4000000000000000000000000000000000000000000000000000000008152600401611d66919061348b565b60405180910390fd5b611d798383612857565b505050565b7f000000000000000000000000000000000000000000000000000000000000000073ffffffffffffffffffffffffffffffffffffffff163073ffffffffffffffffffffffffffffffffffffffff1614611e03576040517fe07c8dba00000000000000000000000000000000000000000000000000000000815260040160405180910390fd5b565b6000611e0f611edc565b905060008160000160009054906101000a900473ffffffffffffffffffffffffffffffffffffffff169050828260000160006101000a81548173ffffffffffffffffffffffffffffffffffffffff021916908373ffffffffffffffffffffffffffffffffffffffff1602179055508273ffffffffffffffffffffffffffffffffffffffff168173ffffffffffffffffffffffffffffffffffffffff167f8be0079c531659141344cd1fd0a4f28419497f9722a3daafe3b4186f6b6457e060405160405180910390a3505050565b60007f9016d09d72d40fdae2fd8ceac6b6234c7706214fd39c1cd1e609a0528c199300905090565b6000611f0e61179e565b9050600073ffffffffffffffffffffffffffffffffffffffff168373ffffffffffffffffffffffffffffffffffffffff1603611f8157826040517f5b08ba18000000000000000000000000000000000000000000000000000000008152600401611f789190613160565b60405180910390fd5b818160050160008673ffffffffffffffffffffffffffffffffffffffff1673ffffffffffffffffffffffffffffffffffffffff16815260200190815260200160002060008573ffffffffffffffffffffffffffffffffffffffff1673ffffffffffffffffffffffffffffffffffffffff16815260200190815260200160002060006101000a81548160ff0219169083151502179055508273ffffffffffffffffffffffffffffffffffffffff168473ffffffffffffffffffffffffffffffffffffffff167f17307eab39ab6107e8899845ad3d59bd9653f200f220920489ca2b5937696c31846040516120749190612fef565b60405180910390a350505050565b60008373ffffffffffffffffffffffffffffffffffffffff163b1115612233578273ffffffffffffffffffffffffffffffffffffffff1663150b7a026120c6611899565b8685856040518563ffffffff1660e01b81526004016120e89493929190613c42565b6020604051808303816000875af192505050801561212457506040513d601f19601f820116820180604052508101906121219190613ca3565b60015b6121a8573d8060008114612154576040519150601f19603f3d011682016040523d82523d6000602084013e612159565b606091505b5060008151036121a057836040517f64a0ae920000000000000000000000000000000000000000000000000000000081526004016121979190613160565b60405180910390fd5b805181602001fd5b63150b7a0260e01b7bffffffffffffffffffffffffffffffffffffffffffffffffffffffff1916817bffffffffffffffffffffffffffffffffffffffffffffffffffffffff19161461223157836040517f64a0ae920000000000000000000000000000000000000000000000000000000081526004016122289190613160565b60405180910390fd5b505b50505050565b60007ff0c57e16840df040f15088dc2f81fe391c3923bec73e23a9662efc9c229c6a00905090565b6122696128ca565b612273828261290a565b5050565b61227f6128ca565b565b6122896128ca565b565b6122936128ca565b61229c81612947565b50565b60007f0542a41881ee128a365a727b282c86fa859579490b9bb45aab8503648c8e7900905090565b606060405180602001604052806000815250905090565b60606122e9826117c6565b5060006122f46122c7565b90506000815111612314576040518060200160405280600081525061233f565b8061231e846129cd565b60405160200161232f92919061391e565b6040516020818303038152906040525b915050919050565b600073ffffffffffffffffffffffffffffffffffffffff168273ffffffffffffffffffffffffffffffffffffffff16036123b95760006040517f64a0ae920000000000000000000000000000000000000000000000000000000081526004016123b09190613160565b60405180910390fd5b60006123c7838360006118ba565b9050600073ffffffffffffffffffffffffffffffffffffffff168173ffffffffffffffffffffffffffffffffffffffff161461243b5760006040517f73c6ac6e0000000000000000000000000000000000000000000000000000000081526004016124329190613160565b60405180910390fd5b505050565b600061244a61229f565b905081816000016000858152602001908152602001600020908161246e9190613e72565b507ff8e1a15aba9398e019f0b49df1a4fde98ee17ae345cb5f6b5e2c27f5033e8ce78360405161249e91906134b5565b60405180910390a1505050565b60007f01ffc9a7000000000000000000000000000000000000000000000000000000007bffffffffffffffffffffffffffffffffffffffffffffffffffffffff1916827bffffffffffffffffffffffffffffffffffffffffffffffffffffffff1916149050919050565b60008061252061179e565b905080600201600084815260200190815260200160002060009054906101000a900473ffffffffffffffffffffffffffffffffffffffff16915050919050565b600033905090565b600061257261179e565b905081806125ad5750600073ffffffffffffffffffffffffffffffffffffffff168373ffffffffffffffffffffffffffffffffffffffff1614155b156126e15760006125bd856117c6565b9050600073ffffffffffffffffffffffffffffffffffffffff168473ffffffffffffffffffffffffffffffffffffffff161415801561262857508373ffffffffffffffffffffffffffffffffffffffff168173ffffffffffffffffffffffffffffffffffffffff1614155b801561263b5750612639818561129c565b155b1561267d57836040517fa9fbf51f0000000000000000000000000000000000000000000000000000000081526004016126749190613160565b60405180910390fd5b82156126df57848673ffffffffffffffffffffffffffffffffffffffff168273ffffffffffffffffffffffffffffffffffffffff167f8c5be1e5ebec7d5bd14f71427d1e84f3dd0314c0f7b2291e5b200ac8c7c3b92560405160405180910390a45b505b8481600401600086815260200190815260200160002060006101000a81548173ffffffffffffffffffffffffffffffffffffffff021916908373ffffffffffffffffffffffffffffffffffffffff1602179055505050505050565b612747838383612a9b565b6127fb57600073ffffffffffffffffffffffffffffffffffffffff168373ffffffffffffffffffffffffffffffffffffffff16036127bc57806040517f7e2732890000000000000000000000000000000000000000000000000000000081526004016127b391906134b5565b60405180910390fd5b81816040517f177e802f0000000000000000000000000000000000000000000000000000000081526004016127f2929190613f44565b60405180910390fd5b505050565b600061282e7f360894a13ba1a3210667c828492db98dca3e2076cc3735a920a3ca505d382bbc60001b612b5c565b60000160009054906101000a900473ffffffffffffffffffffffffffffffffffffffff16905090565b61286082612b66565b8173ffffffffffffffffffffffffffffffffffffffff167fbc7cd75a20ee27fd9adebab32041f755214dbc6bffa90cc0225b39da2e5c2d3b60405160405180910390a26000815111156128bd576128b78282612c33565b506128c6565b6128c5612cb7565b5b5050565b6128d2612cf4565b612908576040517fd7e6bcf800000000000000000000000000000000000000000000000000000000815260040160405180910390fd5b565b6129126128ca565b600061291c61179e565b90508281600001908161292f9190613e72565b50818160010190816129419190613e72565b50505050565b61294f6128ca565b600073ffffffffffffffffffffffffffffffffffffffff168173ffffffffffffffffffffffffffffffffffffffff16036129c15760006040517f1e4fbdf70000000000000000000000000000000000000000000000000000000081526004016129b89190613160565b60405180910390fd5b6129ca81611e05565b50565b6060600060016129dc84612d14565b01905060008167ffffffffffffffff8111156129fb576129fa6132eb565b5b6040519080825280601f01601f191660200182016040528015612a2d5781602001600182028036833780820191505090505b509050600082602001820190505b600115612a90578080600190039150507f3031323334353637383961626364656600000000000000000000000000000000600a86061a8153600a8581612a8457612a83613f6d565b5b04945060008503612a3b575b819350505050919050565b60008073ffffffffffffffffffffffffffffffffffffffff168373ffffffffffffffffffffffffffffffffffffffff1614158015612b5357508273ffffffffffffffffffffffffffffffffffffffff168473ffffffffffffffffffffffffffffffffffffffff161480612b145750612b13848461129c565b5b80612b5257508273ffffffffffffffffffffffffffffffffffffffff16612b3a8361184e565b73ffffffffffffffffffffffffffffffffffffffff16145b5b90509392505050565b6000819050919050565b60008173ffffffffffffffffffffffffffffffffffffffff163b03612bc257806040517f4c9c8ce3000000000000000000000000000000000000000000000000000000008152600401612bb99190613160565b60405180910390fd5b80612bef7f360894a13ba1a3210667c828492db98dca3e2076cc3735a920a3ca505d382bbc60001b612b5c565b60000160006101000a81548173ffffffffffffffffffffffffffffffffffffffff021916908373ffffffffffffffffffffffffffffffffffffffff16021790555050565b60606000808473ffffffffffffffffffffffffffffffffffffffff1684604051612c5d9190613989565b600060405180830381855af49150503d8060008114612c98576040519150601f19603f3d011682016040523d82523d6000602084013e612c9d565b606091505b5091509150612cad858383612e67565b9250505092915050565b6000341115612cf2576040517fb398979f00000000000000000000000000000000000000000000000000000000815260040160405180910390fd5b565b6000612cfe612239565b60000160089054906101000a900460ff16905090565b600080600090507a184f03e93ff9f4daa797ed6e38ed64bf6a1f0100000000000000008310612d72577a184f03e93ff9f4daa797ed6e38ed64bf6a1f0100000000000000008381612d6857612d67613f6d565b5b0492506040810190505b6d04ee2d6d415b85acef81000000008310612daf576d04ee2d6d415b85acef81000000008381612da557612da4613f6d565b5b0492506020810190505b662386f26fc100008310612dde57662386f26fc100008381612dd457612dd3613f6d565b5b0492506010810190505b6305f5e1008310612e07576305f5e1008381612dfd57612dfc613f6d565b5b0492506008810190505b6127108310612e2c576127108381612e2257612e21613f6d565b5b0492506004810190505b60648310612e4f5760648381612e4557612e44613f6d565b5b0492506002810190505b600a8310612e5e576001810190505b80915050919050565b606082612e7c57612e7782612ef6565b612eee565b60008251148015612ea4575060008473ffffffffffffffffffffffffffffffffffffffff163b145b15612ee657836040517f9996b315000000000000000000000000000000000000000000000000000000008152600401612edd9190613160565b60405180910390fd5b819050612eef565b5b9392505050565b600081511115612f095780518082602001fd5b6040517f1425ea4200000000000000000000000000000000000000000000000000000000815260040160405180910390fd5b6000604051905090565b600080fd5b600080fd5b60007fffffffff0000000000000000000000000000000000000000000000000000000082169050919050565b612f8481612f4f565b8114612f8f57600080fd5b50565b600081359050612fa181612f7b565b92915050565b600060208284031215612fbd57612fbc612f45565b5b6000612fcb84828501612f92565b91505092915050565b60008115159050919050565b612fe981612fd4565b82525050565b60006020820190506130046000830184612fe0565b92915050565b600081519050919050565b600082825260208201905092915050565b60005b83811015613044578082015181840152602081019050613029565b60008484015250505050565b6000601f19601f8301169050919050565b600061306c8261300a565b6130768185613015565b9350613086818560208601613026565b61308f81613050565b840191505092915050565b600060208201905081810360008301526130b48184613061565b905092915050565b6000819050919050565b6130cf816130bc565b81146130da57600080fd5b50565b6000813590506130ec816130c6565b92915050565b60006020828403121561310857613107612f45565b5b6000613116848285016130dd565b91505092915050565b600073ffffffffffffffffffffffffffffffffffffffff82169050919050565b600061314a8261311f565b9050919050565b61315a8161313f565b82525050565b60006020820190506131756000830184613151565b92915050565b6131848161313f565b811461318f57600080fd5b50565b6000813590506131a18161317b565b92915050565b600080604083850312156131be576131bd612f45565b5b60006131cc85828601613192565b92505060206131dd858286016130dd565b9150509250929050565b600080600060608486031215613200576131ff612f45565b5b600061320e86828701613192565b935050602061321f86828701613192565b9250506040613230868287016130dd565b9150509250925092565b6000819050919050565b600061325f61325a6132558461311f565b61323a565b61311f565b9050919050565b600061327182613244565b9050919050565b600061328382613266565b9050919050565b61329381613278565b82525050565b60006020820190506132ae600083018461328a565b92915050565b6000602082840312156132ca576132c9612f45565b5b60006132d884828501613192565b91505092915050565b600080fd5b600080fd5b7f4e487b7100000000000000000000000000000000000000000000000000000000600052604160045260246000fd5b61332382613050565b810181811067ffffffffffffffff82111715613342576133416132eb565b5b80604052505050565b6000613355612f3b565b9050613361828261331a565b919050565b600067ffffffffffffffff821115613381576133806132eb565b5b61338a82613050565b9050602081019050919050565b82818337600083830152505050565b60006133b96133b484613366565b61334b565b9050828152602081018484840111156133d5576133d46132e6565b5b6133e0848285613397565b509392505050565b600082601f8301126133fd576133fc6132e1565b5b813561340d8482602086016133a6565b91505092915050565b6000806040838503121561342d5761342c612f45565b5b600061343b85828601613192565b925050602083013567ffffffffffffffff81111561345c5761345b612f4a565b5b613468858286016133e8565b9150509250929050565b6000819050919050565b61348581613472565b82525050565b60006020820190506134a0600083018461347c565b92915050565b6134af816130bc565b82525050565b60006020820190506134ca60008301846134a6565b92915050565b6134d981612fd4565b81146134e457600080fd5b50565b6000813590506134f6816134d0565b92915050565b6000806040838503121561351357613512612f45565b5b600061352185828601613192565b9250506020613532858286016134e7565b9150509250929050565b6000806000806080858703121561355657613555612f45565b5b600061356487828801613192565b945050602061357587828801613192565b9350506040613586878288016130dd565b925050606085013567ffffffffffffffff8111156135a7576135a6612f4a565b5b6135b3878288016133e8565b91505092959194509250565b6000806000606084860312156135d8576135d7612f45565b5b60006135e686828701613192565b93505060206135f7868287016130dd565b925050604061360886828701613192565b9150509250925092565b6000806040838503121561362957613628612f45565b5b600061363785828601613192565b925050602061364885828601613192565b9150509250929050565b600067ffffffffffffffff82111561366d5761366c6132eb565b5b61367682613050565b9050602081019050919050565b600061369661369184613652565b61334b565b9050828152602081018484840111156136b2576136b16132e6565b5b6136bd848285613397565b509392505050565b600082601f8301126136da576136d96132e1565b5b81356136ea848260208601613683565b91505092915050565b6000806040838503121561370a57613709612f45565b5b600061371885828601613192565b925050602083013567ffffffffffffffff81111561373957613738612f4a565b5b613745858286016136c5565b9150509250929050565b7f4e487b7100000000000000000000000000000000000000000000000000000000600052602260045260246000fd5b6000600282049050600182168061379657607f821691505b6020821081036137a9576137a861374f565b5b50919050565b60006060820190506137c46000830186613151565b6137d160208301856134a6565b6137de6040830184613151565b949350505050565b7f49742773207468652073616d6520636f6e74726163742061646472657373206160008201527f73206265666f72652e0000000000000000000000000000000000000000000000602082015250565b6000613842602983613015565b915061384d826137e6565b604082019050919050565b6000602082019050818103600083015261387181613835565b9050919050565b6000819050919050565b600067ffffffffffffffff82169050919050565b60006138b16138ac6138a784613878565b61323a565b613882565b9050919050565b6138c181613896565b82525050565b60006020820190506138dc60008301846138b8565b92915050565b600081905092915050565b60006138f88261300a565b61390281856138e2565b9350613912818560208601613026565b80840191505092915050565b600061392a82856138ed565b915061393682846138ed565b91508190509392505050565b600081519050919050565b600081905092915050565b600061396382613942565b61396d818561394d565b935061397d818560208601613026565b80840191505092915050565b60006139958284613958565b915081905092915050565b60006060820190506139b56000830186613151565b6139c26020830185613151565b6139cf60408301846134a6565b949350505050565b6000815190506139e6816134d0565b92915050565b600060208284031215613a0257613a01612f45565b5b6000613a10848285016139d7565b91505092915050565b7f5061796d656e74206661696c6564000000000000000000000000000000000000600082015250565b6000613a4f600e83613015565b9150613a5a82613a19565b602082019050919050565b60006020820190508181036000830152613a7e81613a42565b9050919050565b6000606082019050613a9a60008301866134a6565b613aa76020830185613151565b613ab460408301846134a6565b949350505050565b7f4e487b7100000000000000000000000000000000000000000000000000000000600052601160045260246000fd5b6000613af6826130bc565b91507fffffffffffffffffffffffffffffffffffffffffffffffffffffffffffffffff8203613b2857613b27613abc565b5b600182019050919050565b7f4c6f6769632063616c6c206661696c6564000000000000000000000000000000600082015250565b6000613b69601183613015565b9150613b7482613b33565b602082019050919050565b60006020820190508181036000830152613b9881613b5c565b9050919050565b613ba881613472565b8114613bb357600080fd5b50565b600081519050613bc581613b9f565b92915050565b600060208284031215613be157613be0612f45565b5b6000613bef84828501613bb6565b91505092915050565b600082825260208201905092915050565b6000613c1482613942565b613c1e8185613bf8565b9350613c2e818560208601613026565b613c3781613050565b840191505092915050565b6000608082019050613c576000830187613151565b613c646020830186613151565b613c7160408301856134a6565b8181036060830152613c838184613c09565b905095945050505050565b600081519050613c9d81612f7b565b92915050565b600060208284031215613cb957613cb8612f45565b5b6000613cc784828501613c8e565b91505092915050565b60008190508160005260206000209050919050565b60006020601f8301049050919050565b600082821b905092915050565b600060088302613d327fffffffffffffffffffffffffffffffffffffffffffffffffffffffffffffffff82613cf5565b613d3c8683613cf5565b95508019841693508086168417925050509392505050565b6000613d6f613d6a613d65846130bc565b61323a565b6130bc565b9050919050565b6000819050919050565b613d8983613d54565b613d9d613d9582613d76565b848454613d02565b825550505050565b600090565b613db2613da5565b613dbd818484613d80565b505050565b5b81811015613de157613dd6600082613daa565b600181019050613dc3565b5050565b601f821115613e2657613df781613cd0565b613e0084613ce5565b81016020851015613e0f578190505b613e23613e1b85613ce5565b830182613dc2565b50505b505050565b600082821c905092915050565b6000613e4960001984600802613e2b565b1980831691505092915050565b6000613e628383613e38565b9150826002028217905092915050565b613e7b8261300a565b67ffffffffffffffff811115613e9457613e936132eb565b5b613e9e825461377e565b613ea9828285613de5565b600060209050601f831160018114613edc5760008415613eca578287015190505b613ed48582613e56565b865550613f3c565b601f198416613eea86613cd0565b60005b82811015613f1257848901518255600182019150602085019450602081019050613eed565b86831015613f2f5784890151613f2b601f891682613e38565b8355505b6001600288020188555050505b505050505050565b6000604082019050613f596000830185613151565b613f6660208301846134a6565b9392505050565b7f4e487b7100000000000000000000000000000000000000000000000000000000600052601260045260246000fdfea26469706673582212202fdc6da16817cff379439984e0c07e3ef6ce053d94a812038bb322d34c3483e064736f6c63430008180033",
  "linkReferences": {},
  "deployedLinkReferences": {}
}