{
  "_format": "hh-sol-artifact-1",
  "contractName": "Proxy",
  "sourceName": "contracts/Proxy.sol",
  "abi": [
    {
      "inputs": [
        {
          "internalType": "address",
          "name": "target",
          "type": "address"
        }
      ],
      "name": "AddressEmptyCode",
      "type": "error"
    },
    {
      "inputs": [
        {
          "internalType": "address",
          "name": "implementation",
          "type": "address"
        }
      ],
      "name": "ERC1967InvalidImplementation",
      "type": "error"
    },
    {
      "inputs": [],
      "name": "ERC1967NonPayable",
      "type": "error"
    },
    {
      "inputs": [
        {
          "internalType": "address",
          "name": "sender",
          "type": "address"
        },
        {
          "internalType": "uint256",
          "name": "tokenId",
          "type": "uint256"
        },
        {
          "internalType": "address",
          "name": "owner",
          "type": "address"
        }
      ],
      "name": "ERC721IncorrectOwner",
      "type": "error"
    },
    {
      "inputs": [
        {
          "internalType": "address",
          "name": "operator",
          "type": "address"
        },
        {
          "internalType": "uint256",
          "name": "tokenId",
          "type": "uint256"
        }
      ],
      "name": "ERC721InsufficientApproval",
      "type": "error"
    },
    {
      "inputs": [
        {
          "internalType": "address",
          "name": "approver",
          "type": "address"
        }
      ],
      "name": "ERC721InvalidApprover",
      "type": "error"
    },
    {
      "inputs": [
        {
          "internalType": "address",
          "name": "operator",
          "type": "address"
        }
      ],
      "name": "ERC721InvalidOperator",
      "type": "error"
    },
    {
      "inputs": [
        {
          "internalType": "address",
          "name": "owner",
          "type": "address"
        }
      ],
      "name": "ERC721InvalidOwner",
      "type": "error"
    },
    {
      "inputs": [
        {
          "internalType": "address",
          "name": "receiver",
          "type": "address"
        }
      ],
      "name": "ERC721InvalidReceiver",
      "type": "error"
    },
    {
      "inputs": [
        {
          "internalType": "address",
          "name": "sender",
          "type": "address"
        }
      ],
      "name": "ERC721InvalidSender",
      "type": "error"
    },
    {
      "inputs": [
        {
          "internalType": "uint256",
          "name": "tokenId",
          "type": "uint256"
        }
      ],
      "name": "ERC721NonexistentToken",
      "type": "error"
    },
    {
      "inputs": [],
      "name": "FailedInnerCall",
      "type": "error"
    },
    {
      "inputs": [],
      "name": "InvalidInitialization",
      "type": "error"
    },
    {
      "inputs": [],
      "name": "NotInitializing",
      "type": "error"
    },
    {
      "inputs": [
        {
          "internalType": "address",
          "name": "owner",
          "type": "address"
        }
      ],
      "name": "OwnableInvalidOwner",
      "type": "error"
    },
    {
      "inputs": [
        {
          "internalType": "address",
          "name": "account",
          "type": "address"
        }
      ],
      "name": "OwnableUnauthorizedAccount",
      "type": "error"
    },
    {
      "inputs": [],
      "name": "UUPSUnauthorizedCallContext",
      "type": "error"
    },
    {
      "inputs": [
        {
          "internalType": "bytes32",
          "name": "slot",
          "type": "bytes32"
        }
      ],
      "name": "UUPSUnsupportedProxiableUUID",
      "type": "error"
    },
    {
      "anonymous": false,
      "inputs": [
        {
          "indexed": true,
          "internalType": "address",
          "name": "owner",
          "type": "address"
        },
        {
          "indexed": true,
          "internalType": "address",
          "name": "approved",
          "type": "address"
        },
        {
          "indexed": true,
          "internalType": "uint256",
          "name": "tokenId",
          "type": "uint256"
        }
      ],
      "name": "Approval",
      "type": "event"
    },
    {
      "anonymous": false,
      "inputs": [
        {
          "indexed": true,
          "internalType": "address",
          "name": "owner",
          "type": "address"
        },
        {
          "indexed": true,
          "internalType": "address",
          "name": "operator",
          "type": "address"
        },
        {
          "indexed": false,
          "internalType": "bool",
          "name": "approved",
          "type": "bool"
        }
      ],
      "name": "ApprovalForAll",
      "type": "event"
    },
    {
      "anonymous": false,
      "inputs": [
        {
          "indexed": false,
          "internalType": "uint256",
          "name": "_fromTokenId",
          "type": "uint256"
        },
        {
          "indexed": false,
          "internalType": "uint256",
          "name": "_toTokenId",
          "type": "uint256"
        }
      ],
      "name": "BatchMetadataUpdate",
      "type": "event"
    },
    {
      "anonymous": false,
      "inputs": [
        {
          "indexed": false,
          "internalType": "uint64",
          "name": "version",
          "type": "uint64"
        }
      ],
      "name": "Initialized",
      "type": "event"
    },
    {
      "anonymous": false,
      "inputs": [
        {
          "indexed": false,
          "internalType": "uint256",
          "name": "_tokenId",
          "type": "uint256"
        }
      ],
      "name": "MetadataUpdate",
      "type": "event"
    },
    {
      "anonymous": false,
      "inputs": [
        {
          "indexed": false,
          "internalType": "uint256",
          "name": "tokenId",
          "type": "uint256"
        },
        {
          "indexed": false,
          "internalType": "address",
          "name": "creator",
          "type": "address"
        },
        {
          "indexed": false,
          "internalType": "uint256",
          "name": "paymentAmount",
          "type": "uint256"
        }
      ],
      "name": "MintERC721",
      "type": "event"
    },
    {
      "anonymous": false,
      "inputs": [
        {
          "indexed": true,
          "internalType": "address",
          "name": "previousOwner",
          "type": "address"
        },
        {
          "indexed": true,
          "internalType": "address",
          "name": "newOwner",
          "type": "address"
        }
      ],
      "name": "OwnershipTransferred",
      "type": "event"
    },
    {
      "anonymous": false,
      "inputs": [
        {
          "indexed": false,
          "internalType": "uint256",
          "name": "newPrice",
          "type": "uint256"
        }
      ],
      "name": "PaymentPriceUpdated",
      "type": "event"
    },
    {
      "anonymous": false,
      "inputs": [
        {
          "indexed": true,
          "internalType": "address",
          "name": "from",
          "type": "address"
        },
        {
          "indexed": true,
          "internalType": "address",
          "name": "to",
          "type": "address"
        },
        {
          "indexed": true,
          "internalType": "uint256",
          "name": "tokenId",
          "type": "uint256"
        }
      ],
      "name": "Transfer",
      "type": "event"
    },
    {
      "anonymous": false,
      "inputs": [
        {
          "indexed": false,
          "internalType": "address",
          "name": "logicContract",
          "type": "address"
        }
      ],
      "name": "UpdateLogicContract",
      "type": "event"
    },
    {
      "anonymous": false,
      "inputs": [
        {
          "indexed": true,
          "internalType": "address",
          "name": "implementation",
          "type": "address"
        }
      ],
      "name": "Upgraded",
      "type": "event"
    },
    {
      "inputs": [],
      "name": "UPGRADE_INTERFACE_VERSION",
      "outputs": [
        {
          "internalType": "string",
          "name": "",
          "type": "string"
        }
      ],
      "stateMutability": "view",
      "type": "function"
    },
    {
      "inputs": [
        {
          "internalType": "address",
          "name": "to",
          "type": "address"
        },
        {
          "internalType": "uint256",
          "name": "tokenId",
          "type": "uint256"
        }
      ],
      "name": "approve",
      "outputs": [],
      "stateMutability": "nonpayable",
      "type": "function"
    },
    {
      "inputs": [
        {
          "internalType": "address",
          "name": "owner",
          "type": "address"
        }
      ],
      "name": "balanceOf",
      "outputs": [
        {
          "internalType": "uint256",
          "name": "",
          "type": "uint256"
        }
      ],
      "stateMutability": "view",
      "type": "function"
    },
    {
      "inputs": [
        {
          "internalType": "uint256",
          "name": "tokenId",
          "type": "uint256"
        }
      ],
      "name": "getApproved",
      "outputs": [
        {
          "internalType": "address",
          "name": "",
          "type": "address"
        }
      ],
      "stateMutability": "view",
      "type": "function"
    },
    {
      "inputs": [],
      "name": "getLogicContract",
      "outputs": [
        {
          "internalType": "address",
          "name": "",
          "type": "address"
        }
      ],
      "stateMutability": "view",
      "type": "function"
    },
    {
      "inputs": [],
      "name": "getNumber",
      "outputs": [
        {
          "internalType": "uint256",
          "name": "",
          "type": "uint256"
        }
      ],
      "stateMutability": "pure",
      "type": "function"
    },
    {
      "inputs": [],
      "name": "getPaymentPrice",
      "outputs": [
        {
          "internalType": "uint256",
          "name": "",
          "type": "uint256"
        }
      ],
      "stateMutability": "view",
      "type": "function"
    },
    {
      "inputs": [],
      "name": "getTokenContract",
      "outputs": [
        {
          "internalType": "address",
          "name": "",
          "type": "address"
        }
      ],
      "stateMutability": "view",
      "type": "function"
    },
    {
      "inputs": [
        {
          "internalType": "address",
          "name": "_paymentToken",
          "type": "address"
        },
        {
          "internalType": "uint256",
          "name": "_paymentPrice",
          "type": "uint256"
        },
        {
          "internalType": "address",
          "name": "_paymentLogic",
          "type": "address"
        }
      ],
      "name": "initialize",
      "outputs": [],
      "stateMutability": "nonpayable",
      "type": "function"
    },
    {
      "inputs": [
        {
          "internalType": "address",
          "name": "owner",
          "type": "address"
        },
        {
          "internalType": "address",
          "name": "operator",
          "type": "address"
        }
      ],
      "name": "isApprovedForAll",
      "outputs": [
        {
          "internalType": "bool",
          "name": "",
          "type": "bool"
        }
      ],
      "stateMutability": "view",
      "type": "function"
    },
    {
      "inputs": [
        {
          "internalType": "address",
          "name": "recipient",
          "type": "address"
        },
        {
          "internalType": "string",
          "name": "tokenURI",
          "type": "string"
        }
      ],
      "name": "mintNFT",
      "outputs": [
        {
          "internalType": "uint256",
          "name": "",
          "type": "uint256"
        }
      ],
      "stateMutability": "nonpayable",
      "type": "function"
    },
    {
      "inputs": [],
      "name": "name",
      "outputs": [
        {
          "internalType": "string",
          "name": "",
          "type": "string"
        }
      ],
      "stateMutability": "view",
      "type": "function"
    },
    {
      "inputs": [],
      "name": "nextTokenId",
      "outputs": [
        {
          "internalType": "uint256",
          "name": "",
          "type": "uint256"
        }
      ],
      "stateMutability": "view",
      "type": "function"
    },
    {
      "inputs": [],
      "name": "owner",
      "outputs": [
        {
          "internalType": "address",
          "name": "",
          "type": "address"
        }
      ],
      "stateMutability": "view",
      "type": "function"
    },
    {
      "inputs": [
        {
          "internalType": "uint256",
          "name": "tokenId",
          "type": "uint256"
        }
      ],
      "name": "ownerOf",
      "outputs": [
        {
          "internalType": "address",
          "name": "",
          "type": "address"
        }
      ],
      "stateMutability": "view",
      "type": "function"
    },
    {
      "inputs": [],
      "name": "paymentLogic",
      "outputs": [
        {
          "internalType": "address",
          "name": "",
          "type": "address"
        }
      ],
      "stateMutability": "view",
      "type": "function"
    },
    {
      "inputs": [],
      "name": "paymentPrice",
      "outputs": [
        {
          "internalType": "uint256",
          "name": "",
          "type": "uint256"
        }
      ],
      "stateMutability": "view",
      "type": "function"
    },
    {
      "inputs": [],
      "name": "paymentToken",
      "outputs": [
        {
          "internalType": "contract ERC20Upgradeable",
          "name": "",
          "type": "address"
        }
      ],
      "stateMutability": "view",
      "type": "function"
    },
    {
      "inputs": [],
      "name": "paymentTokenAddress",
      "outputs": [
        {
          "internalType": "address",
          "name": "",
          "type": "address"
        }
      ],
      "stateMutability": "view",
      "type": "function"
    },
    {
      "inputs": [],
      "name": "proxiableUUID",
      "outputs": [
        {
          "internalType": "bytes32",
          "name": "",
          "type": "bytes32"
        }
      ],
      "stateMutability": "view",
      "type": "function"
    },
    {
      "inputs": [],
      "name": "renounceOwnership",
      "outputs": [],
      "stateMutability": "nonpayable",
      "type": "function"
    },
    {
      "inputs": [
        {
          "internalType": "address",
          "name": "from",
          "type": "address"
        },
        {
          "internalType": "address",
          "name": "to",
          "type": "address"
        },
        {
          "internalType": "uint256",
          "name": "tokenId",
          "type": "uint256"
        }
      ],
      "name": "safeTransferFrom",
      "outputs": [],
      "stateMutability": "nonpayable",
      "type": "function"
    },
    {
      "inputs": [
        {
          "internalType": "address",
          "name": "from",
          "type": "address"
        },
        {
          "internalType": "address",
          "name": "to",
          "type": "address"
        },
        {
          "internalType": "uint256",
          "name": "tokenId",
          "type": "uint256"
        },
        {
          "internalType": "bytes",
          "name": "data",
          "type": "bytes"
        }
      ],
      "name": "safeTransferFrom",
      "outputs": [],
      "stateMutability": "nonpayable",
      "type": "function"
    },
    {
      "inputs": [
        {
          "internalType": "address",
          "name": "operator",
          "type": "address"
        },
        {
          "internalType": "bool",
          "name": "approved",
          "type": "bool"
        }
      ],
      "name": "setApprovalForAll",
      "outputs": [],
      "stateMutability": "nonpayable",
      "type": "function"
    },
    {
      "inputs": [
        {
          "internalType": "bytes4",
          "name": "interfaceId",
          "type": "bytes4"
        }
      ],
      "name": "supportsInterface",
      "outputs": [
        {
          "internalType": "bool",
          "name": "",
          "type": "bool"
        }
      ],
      "stateMutability": "view",
      "type": "function"
    },
    {
      "inputs": [],
      "name": "symbol",
      "outputs": [
        {
          "internalType": "string",
          "name": "",
          "type": "string"
        }
      ],
      "stateMutability": "view",
      "type": "function"
    },
    {
      "inputs": [],
      "name": "testDelegateCall",
      "outputs": [
        {
          "internalType": "bool",
          "name": "",
          "type": "bool"
        }
      ],
      "stateMutability": "nonpayable",
      "type": "function"
    },
    {
      "inputs": [
        {
          "internalType": "uint256",
          "name": "tokenId",
          "type": "uint256"
        }
      ],
      "name": "tokenURI",
      "outputs": [
        {
          "internalType": "string",
          "name": "",
          "type": "string"
        }
      ],
      "stateMutability": "view",
      "type": "function"
    },
    {
      "inputs": [
        {
          "internalType": "address",
          "name": "from",
          "type": "address"
        },
        {
          "internalType": "address",
          "name": "to",
          "type": "address"
        },
        {
          "internalType": "uint256",
          "name": "tokenId",
          "type": "uint256"
        }
      ],
      "name": "transferFrom",
      "outputs": [],
      "stateMutability": "nonpayable",
      "type": "function"
    },
    {
      "inputs": [
        {
          "internalType": "address",
          "name": "newOwner",
          "type": "address"
        }
      ],
      "name": "transferOwnership",
      "outputs": [],
      "stateMutability": "nonpayable",
      "type": "function"
    },
    {
      "inputs": [
        {
          "internalType": "address",
          "name": "_paymentLogic",
          "type": "address"
        }
      ],
      "name": "updateLogicContract",
      "outputs": [],
      "stateMutability": "nonpayable",
      "type": "function"
    },
    {
      "inputs": [],
      "name": "updatePaymentPrice",
      "outputs": [],
      "stateMutability": "nonpayable",
      "type": "function"
    },
    {
      "inputs": [
        {
          "internalType": "address",
          "name": "newImplementation",
          "type": "address"
        },
        {
          "internalType": "bytes",
          "name": "data",
          "type": "bytes"
        }
      ],
      "name": "upgradeToAndCall",
      "outputs": [],
      "stateMutability": "payable",
      "type": "function"
    }
  ],
  "bytecode": "0x60a06040523073ffffffffffffffffffffffffffffffffffffffff1660809073ffffffffffffffffffffffffffffffffffffffff1681525034801561004357600080fd5b5060805161410e61006d60003960008181611cac01528181611d010152611ebc015261410e6000f3fe6080604052600436106101ee5760003560e01c806375794a3c1161010d578063c350a1b5116100a0578063eacabe141161006f578063eacabe14146106e2578063ead669c51461071f578063ee4d8a9e14610736578063f2c9ecd814610761578063f2fde38b1461078c576101ee565b8063c350a1b514610614578063c87b56dd1461063d578063e1e363411461067a578063e985e9c5146106a5576101ee565b8063a22cb465116100dc578063a22cb4651461056c578063ad3cb1cc14610595578063afb18fe7146105c0578063b88d4fde146105eb576101ee565b806375794a3c146104c05780638b18c7e3146104eb5780638da5cb5b1461051657806395d89b4114610541576101ee565b80634d2d6330116101855780636352211e116101545780636352211e1461040457806370a0823114610441578063715018a61461047e578063745d4c0114610495576101ee565b80634d2d6330146103695780634f1ef2861461039257806352d1902d146103ae5780635fe1dd18146103d9576101ee565b806323b872dd116101c157806323b872dd146102c157806328b7bede146102ea5780633013ce291461031557806342842e0e14610340576101ee565b806301ffc9a7146101f357806306fdde0314610230578063081812fc1461025b578063095ea7b314610298575b600080fd5b3480156101ff57600080fd5b5061021a600480360381019061021591906130e3565b6107b5565b604051610227919061312b565b60405180910390f35b34801561023c57600080fd5b50610245610816565b60405161025291906131d6565b60405180910390f35b34801561026757600080fd5b50610282600480360381019061027d919061322e565b6108b7565b60405161028f919061329c565b60405180910390f35b3480156102a457600080fd5b506102bf60048036038101906102ba91906132e3565b6108d3565b005b3480156102cd57600080fd5b506102e860048036038101906102e39190613323565b6108e9565b005b3480156102f657600080fd5b506102ff6109eb565b60405161030c919061329c565b60405180910390f35b34801561032157600080fd5b5061032a610a15565b60405161033791906133d5565b60405180910390f35b34801561034c57600080fd5b5061036760048036038101906103629190613323565b610a3b565b005b34801561037557600080fd5b50610390600480360381019061038b91906133f0565b610a5b565b005b6103ac60048036038101906103a79190613552565b610b90565b005b3480156103ba57600080fd5b506103c3610baf565b6040516103d091906135c7565b60405180910390f35b3480156103e557600080fd5b506103ee610be2565b6040516103fb91906135f1565b60405180910390f35b34801561041057600080fd5b5061042b6004803603810190610426919061322e565b610beb565b604051610438919061329c565b60405180910390f35b34801561044d57600080fd5b50610468600480360381019061046391906133f0565b610bfd565b60405161047591906135f1565b60405180910390f35b34801561048a57600080fd5b50610493610cc6565b005b3480156104a157600080fd5b506104aa610cda565b6040516104b7919061329c565b60405180910390f35b3480156104cc57600080fd5b506104d5610d00565b6040516104e291906135f1565b60405180910390f35b3480156104f757600080fd5b50610500610d06565b60405161050d919061329c565b60405180910390f35b34801561052257600080fd5b5061052b610d30565b604051610538919061329c565b60405180910390f35b34801561054d57600080fd5b50610556610d68565b60405161056391906131d6565b60405180910390f35b34801561057857600080fd5b50610593600480360381019061058e9190613638565b610e09565b005b3480156105a157600080fd5b506105aa610e1f565b6040516105b791906131d6565b60405180910390f35b3480156105cc57600080fd5b506105d5610e58565b6040516105e2919061329c565b60405180910390f35b3480156105f757600080fd5b50610612600480360381019061060d9190613678565b610e7e565b005b34801561062057600080fd5b5061063b600480360381019061063691906136fb565b610e9b565b005b34801561064957600080fd5b50610664600480360381019061065f919061322e565b61118b565b60405161067191906131d6565b60405180910390f35b34801561068657600080fd5b5061068f6112af565b60405161069c919061312b565b60405180910390f35b3480156106b157600080fd5b506106cc60048036038101906106c7919061374e565b6113cf565b6040516106d9919061312b565b60405180910390f35b3480156106ee57600080fd5b506107096004803603810190610704919061382f565b611471565b60405161071691906135f1565b60405180910390f35b34801561072b57600080fd5b506107346115d0565b005b34801561074257600080fd5b5061074b611763565b60405161075891906135f1565b60405180910390f35b34801561076d57600080fd5b50610776611769565b60405161078391906135f1565b60405180910390f35b34801561079857600080fd5b506107b360048036038101906107ae91906133f0565b611772565b005b6000634906490660e01b7bffffffffffffffffffffffffffffffffffffffffffffffffffffffff1916827bffffffffffffffffffffffffffffffffffffffffffffffffffffffff1916148061080f575061080e826117f8565b5b9050919050565b606060006108226118da565b9050806000018054610833906138ba565b80601f016020809104026020016040519081016040528092919081815260200182805461085f906138ba565b80156108ac5780601f10610881576101008083540402835291602001916108ac565b820191906000526020600020905b81548152906001019060200180831161088f57829003601f168201915b505050505091505090565b60006108c282611902565b506108cc8261198a565b9050919050565b6108e582826108e06119d5565b6119e4565b5050565b600073ffffffffffffffffffffffffffffffffffffffff168273ffffffffffffffffffffffffffffffffffffffff160361095b5760006040517f64a0ae92000000000000000000000000000000000000000000000000000000008152600401610952919061329c565b60405180910390fd5b600061096f838361096a6119d5565b6119f6565b90508373ffffffffffffffffffffffffffffffffffffffff168173ffffffffffffffffffffffffffffffffffffffff16146109e5578382826040517f64283d7b0000000000000000000000000000000000000000000000000000000081526004016109dc939291906138eb565b60405180910390fd5b50505050565b6000600360009054906101000a900473ffffffffffffffffffffffffffffffffffffffff16905090565b600260009054906101000a900473ffffffffffffffffffffffffffffffffffffffff1681565b610a5683838360405180602001604052806000815250610e7e565b505050565b610a63611c23565b8073ffffffffffffffffffffffffffffffffffffffff16600460009054906101000a900473ffffffffffffffffffffffffffffffffffffffff1673ffffffffffffffffffffffffffffffffffffffff1603610af3576040517f08c379a0000000000000000000000000000000000000000000000000000000008152600401610aea90613994565b60405180910390fd5b80600460006101000a81548173ffffffffffffffffffffffffffffffffffffffff021916908373ffffffffffffffffffffffffffffffffffffffff1602179055507fdc1b03aa7118707aafb4044faaf6670a730f5cf9db870157f5ce90ad6c9df4ea600460009054906101000a900473ffffffffffffffffffffffffffffffffffffffff16604051610b85919061329c565b60405180910390a150565b610b98611caa565b610ba182611d90565b610bab8282611d9b565b5050565b6000610bb9611eba565b7f360894a13ba1a3210667c828492db98dca3e2076cc3735a920a3ca505d382bbc60001b905090565b60008054905090565b6000610bf682611902565b9050919050565b600080610c086118da565b9050600073ffffffffffffffffffffffffffffffffffffffff168373ffffffffffffffffffffffffffffffffffffffff1603610c7c5760006040517f89c62b64000000000000000000000000000000000000000000000000000000008152600401610c73919061329c565b60405180910390fd5b8060030160008473ffffffffffffffffffffffffffffffffffffffff1673ffffffffffffffffffffffffffffffffffffffff16815260200190815260200160002054915050919050565b610cce611c23565b610cd86000611f41565b565b600460009054906101000a900473ffffffffffffffffffffffffffffffffffffffff1681565b60015481565b6000600460009054906101000a900473ffffffffffffffffffffffffffffffffffffffff16905090565b600080610d3b612018565b90508060000160009054906101000a900473ffffffffffffffffffffffffffffffffffffffff1691505090565b60606000610d746118da565b9050806001018054610d85906138ba565b80601f0160208091040260200160405190810160405280929190818152602001828054610db1906138ba565b8015610dfe5780601f10610dd357610100808354040283529160200191610dfe565b820191906000526020600020905b815481529060010190602001808311610de157829003601f168201915b505050505091505090565b610e1b610e146119d5565b8383612040565b5050565b6040518060400160405280600581526020017f352e302e3000000000000000000000000000000000000000000000000000000081525081565b600360009054906101000a900473ffffffffffffffffffffffffffffffffffffffff1681565b610e898484846108e9565b610e95848484846121be565b50505050565b6000610ea5612375565b905060008160000160089054906101000a900460ff1615905060008260000160009054906101000a900467ffffffffffffffff1690506000808267ffffffffffffffff16148015610ef35750825b9050600060018367ffffffffffffffff16148015610f28575060003073ffffffffffffffffffffffffffffffffffffffff163b145b905081158015610f36575080155b15610f6d576040517ff92ee8a900000000000000000000000000000000000000000000000000000000815260040160405180910390fd5b60018560000160006101000a81548167ffffffffffffffff021916908367ffffffffffffffff1602179055508315610fbd5760018560000160086101000a81548160ff0219169083151502179055505b6110316040518060400160405280600481526020017f4954454d000000000000000000000000000000000000000000000000000000008152506040518060400160405280600381526020017f4e4654000000000000000000000000000000000000000000000000000000000081525061239d565b6110396123b3565b6110416123bd565b61104a336123c7565b87600260006101000a81548173ffffffffffffffffffffffffffffffffffffffff021916908373ffffffffffffffffffffffffffffffffffffffff16021790555087600360006101000a81548173ffffffffffffffffffffffffffffffffffffffff021916908373ffffffffffffffffffffffffffffffffffffffff16021790555086600081905550600060018190555085600460006101000a81548173ffffffffffffffffffffffffffffffffffffffff021916908373ffffffffffffffffffffffffffffffffffffffff16021790555061112533611772565b83156111815760008560000160086101000a81548160ff0219169083151502179055507fc7f505b2f371ae2175ee4913f4499e1f2633a7b5936321eed1cdaeb6115181d260016040516111789190613a03565b60405180910390a15b5050505050505050565b606060006111976123db565b90506111a283611902565b50600081600001600085815260200190815260200160002080546111c5906138ba565b80601f01602080910402602001604051908101604052809291908181526020018280546111f1906138ba565b801561123e5780601f106112135761010080835404028352916020019161123e565b820191906000526020600020905b81548152906001019060200180831161122157829003601f168201915b50505050509050600061124f612403565b90506000815103611265578193505050506112aa565b60008251111561129b578082604051602001611282929190613a5a565b60405160208183030381529060405293505050506112aa565b6112a48561241a565b93505050505b919050565b60006112b9611c23565b6000600460009054906101000a900473ffffffffffffffffffffffffffffffffffffffff1673ffffffffffffffffffffffffffffffffffffffff166040516024016040516020818303038152906040527fd348b409000000000000000000000000000000000000000000000000000000007bffffffffffffffffffffffffffffffffffffffffffffffffffffffff19166020820180517bffffffffffffffffffffffffffffffffffffffffffffffffffffffff83818316178352505050506040516113849190613ac5565b600060405180830381855af49150503d80600081146113bf576040519150601f19603f3d011682016040523d82523d6000602084013e6113c4565b606091505b505090508091505090565b6000806113da6118da565b90508060050160008573ffffffffffffffffffffffffffffffffffffffff1673ffffffffffffffffffffffffffffffffffffffff16815260200190815260200160002060008473ffffffffffffffffffffffffffffffffffffffff1673ffffffffffffffffffffffffffffffffffffffff16815260200190815260200160002060009054906101000a900460ff1691505092915050565b6000600260009054906101000a900473ffffffffffffffffffffffffffffffffffffffff1673ffffffffffffffffffffffffffffffffffffffff166323b872dd33306000546040518463ffffffff1660e01b81526004016114d493929190613adc565b6020604051808303816000875af11580156114f3573d6000803e3d6000fd5b505050506040513d601f19601f820116820180604052508101906115179190613b28565b611556576040517f08c379a000000000000000000000000000000000000000000000000000000000815260040161154d90613ba1565b60405180910390fd5b61156283600154612483565b61156e6001548361257c565b7fc944c309a13a562602929546d511d51494983314457ab0c385bfe653a757feeb600154336000546040516115a593929190613bc1565b60405180910390a1600160008154809291906115c090613c27565b9190505550600154905092915050565b6115d8611c23565b6000600460009054906101000a900473ffffffffffffffffffffffffffffffffffffffff1673ffffffffffffffffffffffffffffffffffffffff166040516024016040516020818303038152906040527fd348b409000000000000000000000000000000000000000000000000000000007bffffffffffffffffffffffffffffffffffffffffffffffffffffffff19166020820180517bffffffffffffffffffffffffffffffffffffffffffffffffffffffff83818316178352505050506040516116a39190613ac5565b600060405180830381855af49150503d80600081146116de576040519150601f19603f3d011682016040523d82523d6000602084013e6116e3565b606091505b5050905080611727576040517f08c379a000000000000000000000000000000000000000000000000000000000815260040161171e90613cbb565b60405180910390fd5b7f0a0d60154d0f5f0c257a1e7e3a6a4bee1757ff32f4c0364da40df2aad9f7692f60005460405161175891906135f1565b60405180910390a150565b60005481565b60006001905090565b61177a611c23565b600073ffffffffffffffffffffffffffffffffffffffff168173ffffffffffffffffffffffffffffffffffffffff16036117ec5760006040517f1e4fbdf70000000000000000000000000000000000000000000000000000000081526004016117e3919061329c565b60405180910390fd5b6117f581611f41565b50565b60007f80ac58cd000000000000000000000000000000000000000000000000000000007bffffffffffffffffffffffffffffffffffffffffffffffffffffffff1916827bffffffffffffffffffffffffffffffffffffffffffffffffffffffff191614806118c357507f5b5e139f000000000000000000000000000000000000000000000000000000007bffffffffffffffffffffffffffffffffffffffffffffffffffffffff1916827bffffffffffffffffffffffffffffffffffffffffffffffffffffffff1916145b806118d357506118d2826125e7565b5b9050919050565b60007f80bb2b638cc20bc4d0a60d66940f3ab4a00c1d7b313497ca82fb0b4ab0079300905090565b60008061190e83612651565b9050600073ffffffffffffffffffffffffffffffffffffffff168173ffffffffffffffffffffffffffffffffffffffff160361198157826040517f7e27328900000000000000000000000000000000000000000000000000000000815260040161197891906135f1565b60405180910390fd5b80915050919050565b6000806119956118da565b905080600401600084815260200190815260200160002060009054906101000a900473ffffffffffffffffffffffffffffffffffffffff16915050919050565b60006119df61269c565b905090565b6119f183838360016126a4565b505050565b600080611a016118da565b90506000611a0e85612651565b9050600073ffffffffffffffffffffffffffffffffffffffff168473ffffffffffffffffffffffffffffffffffffffff1614611a5057611a4f818587612878565b5b600073ffffffffffffffffffffffffffffffffffffffff168173ffffffffffffffffffffffffffffffffffffffff1614611ae357611a926000866000806126a4565b60018260030160008373ffffffffffffffffffffffffffffffffffffffff1673ffffffffffffffffffffffffffffffffffffffff168152602001908152602001600020600082825403925050819055505b600073ffffffffffffffffffffffffffffffffffffffff168673ffffffffffffffffffffffffffffffffffffffff1614611b685760018260030160008873ffffffffffffffffffffffffffffffffffffffff1673ffffffffffffffffffffffffffffffffffffffff168152602001908152602001600020600082825401925050819055505b8582600201600087815260200190815260200160002060006101000a81548173ffffffffffffffffffffffffffffffffffffffff021916908373ffffffffffffffffffffffffffffffffffffffff160217905550848673ffffffffffffffffffffffffffffffffffffffff168273ffffffffffffffffffffffffffffffffffffffff167fddf252ad1be2c89b69c2b068fc378daa952ba7f163c4a11628f55a4df523b3ef60405160405180910390a480925050509392505050565b611c2b6119d5565b73ffffffffffffffffffffffffffffffffffffffff16611c49610d30565b73ffffffffffffffffffffffffffffffffffffffff1614611ca857611c6c6119d5565b6040517f118cdaa7000000000000000000000000000000000000000000000000000000008152600401611c9f919061329c565b60405180910390fd5b565b7f000000000000000000000000000000000000000000000000000000000000000073ffffffffffffffffffffffffffffffffffffffff163073ffffffffffffffffffffffffffffffffffffffff161480611d5757507f000000000000000000000000000000000000000000000000000000000000000073ffffffffffffffffffffffffffffffffffffffff16611d3e61293c565b73ffffffffffffffffffffffffffffffffffffffff1614155b15611d8e576040517fe07c8dba00000000000000000000000000000000000000000000000000000000815260040160405180910390fd5b565b611d98611c23565b50565b8173ffffffffffffffffffffffffffffffffffffffff166352d1902d6040518163ffffffff1660e01b8152600401602060405180830381865afa925050508015611e0357506040513d601f19601f82011682018060405250810190611e009190613d07565b60015b611e4457816040517f4c9c8ce3000000000000000000000000000000000000000000000000000000008152600401611e3b919061329c565b60405180910390fd5b7f360894a13ba1a3210667c828492db98dca3e2076cc3735a920a3ca505d382bbc60001b8114611eab57806040517faa1d49a4000000000000000000000000000000000000000000000000000000008152600401611ea291906135c7565b60405180910390fd5b611eb58383612993565b505050565b7f000000000000000000000000000000000000000000000000000000000000000073ffffffffffffffffffffffffffffffffffffffff163073ffffffffffffffffffffffffffffffffffffffff1614611f3f576040517fe07c8dba00000000000000000000000000000000000000000000000000000000815260040160405180910390fd5b565b6000611f4b612018565b905060008160000160009054906101000a900473ffffffffffffffffffffffffffffffffffffffff169050828260000160006101000a81548173ffffffffffffffffffffffffffffffffffffffff021916908373ffffffffffffffffffffffffffffffffffffffff1602179055508273ffffffffffffffffffffffffffffffffffffffff168173ffffffffffffffffffffffffffffffffffffffff167f8be0079c531659141344cd1fd0a4f28419497f9722a3daafe3b4186f6b6457e060405160405180910390a3505050565b60007f9016d09d72d40fdae2fd8ceac6b6234c7706214fd39c1cd1e609a0528c199300905090565b600061204a6118da565b9050600073ffffffffffffffffffffffffffffffffffffffff168373ffffffffffffffffffffffffffffffffffffffff16036120bd57826040517f5b08ba180000000000000000000000000000000000000000000000000000000081526004016120b4919061329c565b60405180910390fd5b818160050160008673ffffffffffffffffffffffffffffffffffffffff1673ffffffffffffffffffffffffffffffffffffffff16815260200190815260200160002060008573ffffffffffffffffffffffffffffffffffffffff1673ffffffffffffffffffffffffffffffffffffffff16815260200190815260200160002060006101000a81548160ff0219169083151502179055508273ffffffffffffffffffffffffffffffffffffffff168473ffffffffffffffffffffffffffffffffffffffff167f17307eab39ab6107e8899845ad3d59bd9653f200f220920489ca2b5937696c31846040516121b0919061312b565b60405180910390a350505050565b60008373ffffffffffffffffffffffffffffffffffffffff163b111561236f578273ffffffffffffffffffffffffffffffffffffffff1663150b7a026122026119d5565b8685856040518563ffffffff1660e01b81526004016122249493929190613d7e565b6020604051808303816000875af192505050801561226057506040513d601f19601f8201168201806040525081019061225d9190613ddf565b60015b6122e4573d8060008114612290576040519150601f19603f3d011682016040523d82523d6000602084013e612295565b606091505b5060008151036122dc57836040517f64a0ae920000000000000000000000000000000000000000000000000000000081526004016122d3919061329c565b60405180910390fd5b805181602001fd5b63150b7a0260e01b7bffffffffffffffffffffffffffffffffffffffffffffffffffffffff1916817bffffffffffffffffffffffffffffffffffffffffffffffffffffffff19161461236d57836040517f64a0ae92000000000000000000000000000000000000000000000000000000008152600401612364919061329c565b60405180910390fd5b505b50505050565b60007ff0c57e16840df040f15088dc2f81fe391c3923bec73e23a9662efc9c229c6a00905090565b6123a5612a06565b6123af8282612a46565b5050565b6123bb612a06565b565b6123c5612a06565b565b6123cf612a06565b6123d881612a83565b50565b60007f0542a41881ee128a365a727b282c86fa859579490b9bb45aab8503648c8e7900905090565b606060405180602001604052806000815250905090565b606061242582611902565b506000612430612403565b90506000815111612450576040518060200160405280600081525061247b565b8061245a84612b09565b60405160200161246b929190613a5a565b6040516020818303038152906040525b915050919050565b600073ffffffffffffffffffffffffffffffffffffffff168273ffffffffffffffffffffffffffffffffffffffff16036124f55760006040517f64a0ae920000000000000000000000000000000000000000000000000000000081526004016124ec919061329c565b60405180910390fd5b6000612503838360006119f6565b9050600073ffffffffffffffffffffffffffffffffffffffff168173ffffffffffffffffffffffffffffffffffffffff16146125775760006040517f73c6ac6e00000000000000000000000000000000000000000000000000000000815260040161256e919061329c565b60405180910390fd5b505050565b60006125866123db565b90508181600001600085815260200190815260200160002090816125aa9190613fae565b507ff8e1a15aba9398e019f0b49df1a4fde98ee17ae345cb5f6b5e2c27f5033e8ce7836040516125da91906135f1565b60405180910390a1505050565b60007f01ffc9a7000000000000000000000000000000000000000000000000000000007bffffffffffffffffffffffffffffffffffffffffffffffffffffffff1916827bffffffffffffffffffffffffffffffffffffffffffffffffffffffff1916149050919050565b60008061265c6118da565b905080600201600084815260200190815260200160002060009054906101000a900473ffffffffffffffffffffffffffffffffffffffff16915050919050565b600033905090565b60006126ae6118da565b905081806126e95750600073ffffffffffffffffffffffffffffffffffffffff168373ffffffffffffffffffffffffffffffffffffffff1614155b1561281d5760006126f985611902565b9050600073ffffffffffffffffffffffffffffffffffffffff168473ffffffffffffffffffffffffffffffffffffffff161415801561276457508373ffffffffffffffffffffffffffffffffffffffff168173ffffffffffffffffffffffffffffffffffffffff1614155b8015612777575061277581856113cf565b155b156127b957836040517fa9fbf51f0000000000000000000000000000000000000000000000000000000081526004016127b0919061329c565b60405180910390fd5b821561281b57848673ffffffffffffffffffffffffffffffffffffffff168273ffffffffffffffffffffffffffffffffffffffff167f8c5be1e5ebec7d5bd14f71427d1e84f3dd0314c0f7b2291e5b200ac8c7c3b92560405160405180910390a45b505b8481600401600086815260200190815260200160002060006101000a81548173ffffffffffffffffffffffffffffffffffffffff021916908373ffffffffffffffffffffffffffffffffffffffff1602179055505050505050565b612883838383612bd7565b61293757600073ffffffffffffffffffffffffffffffffffffffff168373ffffffffffffffffffffffffffffffffffffffff16036128f857806040517f7e2732890000000000000000000000000000000000000000000000000000000081526004016128ef91906135f1565b60405180910390fd5b81816040517f177e802f00000000000000000000000000000000000000000000000000000000815260040161292e929190614080565b60405180910390fd5b505050565b600061296a7f360894a13ba1a3210667c828492db98dca3e2076cc3735a920a3ca505d382bbc60001b612c98565b60000160009054906101000a900473ffffffffffffffffffffffffffffffffffffffff16905090565b61299c82612ca2565b8173ffffffffffffffffffffffffffffffffffffffff167fbc7cd75a20ee27fd9adebab32041f755214dbc6bffa90cc0225b39da2e5c2d3b60405160405180910390a26000815111156129f9576129f38282612d6f565b50612a02565b612a01612df3565b5b5050565b612a0e612e30565b612a44576040517fd7e6bcf800000000000000000000000000000000000000000000000000000000815260040160405180910390fd5b565b612a4e612a06565b6000612a586118da565b905082816000019081612a6b9190613fae565b5081816001019081612a7d9190613fae565b50505050565b612a8b612a06565b600073ffffffffffffffffffffffffffffffffffffffff168173ffffffffffffffffffffffffffffffffffffffff1603612afd5760006040517f1e4fbdf7000000000000000000000000000000000000000000000000000000008152600401612af4919061329c565b60405180910390fd5b612b0681611f41565b50565b606060006001612b1884612e50565b01905060008167ffffffffffffffff811115612b3757612b36613427565b5b6040519080825280601f01601f191660200182016040528015612b695781602001600182028036833780820191505090505b509050600082602001820190505b600115612bcc578080600190039150507f3031323334353637383961626364656600000000000000000000000000000000600a86061a8153600a8581612bc057612bbf6140a9565b5b04945060008503612b77575b819350505050919050565b60008073ffffffffffffffffffffffffffffffffffffffff168373ffffffffffffffffffffffffffffffffffffffff1614158015612c8f57508273ffffffffffffffffffffffffffffffffffffffff168473ffffffffffffffffffffffffffffffffffffffff161480612c505750612c4f84846113cf565b5b80612c8e57508273ffffffffffffffffffffffffffffffffffffffff16612c768361198a565b73ffffffffffffffffffffffffffffffffffffffff16145b5b90509392505050565b6000819050919050565b60008173ffffffffffffffffffffffffffffffffffffffff163b03612cfe57806040517f4c9c8ce3000000000000000000000000000000000000000000000000000000008152600401612cf5919061329c565b60405180910390fd5b80612d2b7f360894a13ba1a3210667c828492db98dca3e2076cc3735a920a3ca505d382bbc60001b612c98565b60000160006101000a81548173ffffffffffffffffffffffffffffffffffffffff021916908373ffffffffffffffffffffffffffffffffffffffff16021790555050565b60606000808473ffffffffffffffffffffffffffffffffffffffff1684604051612d999190613ac5565b600060405180830381855af49150503d8060008114612dd4576040519150601f19603f3d011682016040523d82523d6000602084013e612dd9565b606091505b5091509150612de9858383612fa3565b9250505092915050565b6000341115612e2e576040517fb398979f00000000000000000000000000000000000000000000000000000000815260040160405180910390fd5b565b6000612e3a612375565b60000160089054906101000a900460ff16905090565b600080600090507a184f03e93ff9f4daa797ed6e38ed64bf6a1f0100000000000000008310612eae577a184f03e93ff9f4daa797ed6e38ed64bf6a1f0100000000000000008381612ea457612ea36140a9565b5b0492506040810190505b6d04ee2d6d415b85acef81000000008310612eeb576d04ee2d6d415b85acef81000000008381612ee157612ee06140a9565b5b0492506020810190505b662386f26fc100008310612f1a57662386f26fc100008381612f1057612f0f6140a9565b5b0492506010810190505b6305f5e1008310612f43576305f5e1008381612f3957612f386140a9565b5b0492506008810190505b6127108310612f68576127108381612f5e57612f5d6140a9565b5b0492506004810190505b60648310612f8b5760648381612f8157612f806140a9565b5b0492506002810190505b600a8310612f9a576001810190505b80915050919050565b606082612fb857612fb382613032565b61302a565b60008251148015612fe0575060008473ffffffffffffffffffffffffffffffffffffffff163b145b1561302257836040517f9996b315000000000000000000000000000000000000000000000000000000008152600401613019919061329c565b60405180910390fd5b81905061302b565b5b9392505050565b6000815111156130455780518082602001fd5b6040517f1425ea4200000000000000000000000000000000000000000000000000000000815260040160405180910390fd5b6000604051905090565b600080fd5b600080fd5b60007fffffffff0000000000000000000000000000000000000000000000000000000082169050919050565b6130c08161308b565b81146130cb57600080fd5b50565b6000813590506130dd816130b7565b92915050565b6000602082840312156130f9576130f8613081565b5b6000613107848285016130ce565b91505092915050565b60008115159050919050565b61312581613110565b82525050565b6000602082019050613140600083018461311c565b92915050565b600081519050919050565b600082825260208201905092915050565b60005b83811015613180578082015181840152602081019050613165565b60008484015250505050565b6000601f19601f8301169050919050565b60006131a882613146565b6131b28185613151565b93506131c2818560208601613162565b6131cb8161318c565b840191505092915050565b600060208201905081810360008301526131f0818461319d565b905092915050565b6000819050919050565b61320b816131f8565b811461321657600080fd5b50565b60008135905061322881613202565b92915050565b60006020828403121561324457613243613081565b5b600061325284828501613219565b91505092915050565b600073ffffffffffffffffffffffffffffffffffffffff82169050919050565b60006132868261325b565b9050919050565b6132968161327b565b82525050565b60006020820190506132b1600083018461328d565b92915050565b6132c08161327b565b81146132cb57600080fd5b50565b6000813590506132dd816132b7565b92915050565b600080604083850312156132fa576132f9613081565b5b6000613308858286016132ce565b925050602061331985828601613219565b9150509250929050565b60008060006060848603121561333c5761333b613081565b5b600061334a868287016132ce565b935050602061335b868287016132ce565b925050604061336c86828701613219565b9150509250925092565b6000819050919050565b600061339b6133966133918461325b565b613376565b61325b565b9050919050565b60006133ad82613380565b9050919050565b60006133bf826133a2565b9050919050565b6133cf816133b4565b82525050565b60006020820190506133ea60008301846133c6565b92915050565b60006020828403121561340657613405613081565b5b6000613414848285016132ce565b91505092915050565b600080fd5b600080fd5b7f4e487b7100000000000000000000000000000000000000000000000000000000600052604160045260246000fd5b61345f8261318c565b810181811067ffffffffffffffff8211171561347e5761347d613427565b5b80604052505050565b6000613491613077565b905061349d8282613456565b919050565b600067ffffffffffffffff8211156134bd576134bc613427565b5b6134c68261318c565b9050602081019050919050565b82818337600083830152505050565b60006134f56134f0846134a2565b613487565b90508281526020810184848401111561351157613510613422565b5b61351c8482856134d3565b509392505050565b600082601f8301126135395761353861341d565b5b81356135498482602086016134e2565b91505092915050565b6000806040838503121561356957613568613081565b5b6000613577858286016132ce565b925050602083013567ffffffffffffffff81111561359857613597613086565b5b6135a485828601613524565b9150509250929050565b6000819050919050565b6135c1816135ae565b82525050565b60006020820190506135dc60008301846135b8565b92915050565b6135eb816131f8565b82525050565b600060208201905061360660008301846135e2565b92915050565b61361581613110565b811461362057600080fd5b50565b6000813590506136328161360c565b92915050565b6000806040838503121561364f5761364e613081565b5b600061365d858286016132ce565b925050602061366e85828601613623565b9150509250929050565b6000806000806080858703121561369257613691613081565b5b60006136a0878288016132ce565b94505060206136b1878288016132ce565b93505060406136c287828801613219565b925050606085013567ffffffffffffffff8111156136e3576136e2613086565b5b6136ef87828801613524565b91505092959194509250565b60008060006060848603121561371457613713613081565b5b6000613722868287016132ce565b935050602061373386828701613219565b9250506040613744868287016132ce565b9150509250925092565b6000806040838503121561376557613764613081565b5b6000613773858286016132ce565b9250506020613784858286016132ce565b9150509250929050565b600067ffffffffffffffff8211156137a9576137a8613427565b5b6137b28261318c565b9050602081019050919050565b60006137d26137cd8461378e565b613487565b9050828152602081018484840111156137ee576137ed613422565b5b6137f98482856134d3565b509392505050565b600082601f8301126138165761381561341d565b5b81356138268482602086016137bf565b91505092915050565b6000806040838503121561384657613845613081565b5b6000613854858286016132ce565b925050602083013567ffffffffffffffff81111561387557613874613086565b5b61388185828601613801565b9150509250929050565b7f4e487b7100000000000000000000000000000000000000000000000000000000600052602260045260246000fd5b600060028204905060018216806138d257607f821691505b6020821081036138e5576138e461388b565b5b50919050565b6000606082019050613900600083018661328d565b61390d60208301856135e2565b61391a604083018461328d565b949350505050565b7f49742773207468652073616d6520636f6e74726163742061646472657373206160008201527f73206265666f72652e0000000000000000000000000000000000000000000000602082015250565b600061397e602983613151565b915061398982613922565b604082019050919050565b600060208201905081810360008301526139ad81613971565b9050919050565b6000819050919050565b600067ffffffffffffffff82169050919050565b60006139ed6139e86139e3846139b4565b613376565b6139be565b9050919050565b6139fd816139d2565b82525050565b6000602082019050613a1860008301846139f4565b92915050565b600081905092915050565b6000613a3482613146565b613a3e8185613a1e565b9350613a4e818560208601613162565b80840191505092915050565b6000613a668285613a29565b9150613a728284613a29565b91508190509392505050565b600081519050919050565b600081905092915050565b6000613a9f82613a7e565b613aa98185613a89565b9350613ab9818560208601613162565b80840191505092915050565b6000613ad18284613a94565b915081905092915050565b6000606082019050613af1600083018661328d565b613afe602083018561328d565b613b0b60408301846135e2565b949350505050565b600081519050613b228161360c565b92915050565b600060208284031215613b3e57613b3d613081565b5b6000613b4c84828501613b13565b91505092915050565b7f5061796d656e74206661696c6564000000000000000000000000000000000000600082015250565b6000613b8b600e83613151565b9150613b9682613b55565b602082019050919050565b60006020820190508181036000830152613bba81613b7e565b9050919050565b6000606082019050613bd660008301866135e2565b613be3602083018561328d565b613bf060408301846135e2565b949350505050565b7f4e487b7100000000000000000000000000000000000000000000000000000000600052601160045260246000fd5b6000613c32826131f8565b91507fffffffffffffffffffffffffffffffffffffffffffffffffffffffffffffffff8203613c6457613c63613bf8565b5b600182019050919050565b7f4c6f6769632063616c6c206661696c6564000000000000000000000000000000600082015250565b6000613ca5601183613151565b9150613cb082613c6f565b602082019050919050565b60006020820190508181036000830152613cd481613c98565b9050919050565b613ce4816135ae565b8114613cef57600080fd5b50565b600081519050613d0181613cdb565b92915050565b600060208284031215613d1d57613d1c613081565b5b6000613d2b84828501613cf2565b91505092915050565b600082825260208201905092915050565b6000613d5082613a7e565b613d5a8185613d34565b9350613d6a818560208601613162565b613d738161318c565b840191505092915050565b6000608082019050613d93600083018761328d565b613da0602083018661328d565b613dad60408301856135e2565b8181036060830152613dbf8184613d45565b905095945050505050565b600081519050613dd9816130b7565b92915050565b600060208284031215613df557613df4613081565b5b6000613e0384828501613dca565b91505092915050565b60008190508160005260206000209050919050565b60006020601f8301049050919050565b600082821b905092915050565b600060088302613e6e7fffffffffffffffffffffffffffffffffffffffffffffffffffffffffffffffff82613e31565b613e788683613e31565b95508019841693508086168417925050509392505050565b6000613eab613ea6613ea1846131f8565b613376565b6131f8565b9050919050565b6000819050919050565b613ec583613e90565b613ed9613ed182613eb2565b848454613e3e565b825550505050565b600090565b613eee613ee1565b613ef9818484613ebc565b505050565b5b81811015613f1d57613f12600082613ee6565b600181019050613eff565b5050565b601f821115613f6257613f3381613e0c565b613f3c84613e21565b81016020851015613f4b578190505b613f5f613f5785613e21565b830182613efe565b50505b505050565b600082821c905092915050565b6000613f8560001984600802613f67565b1980831691505092915050565b6000613f9e8383613f74565b9150826002028217905092915050565b613fb782613146565b67ffffffffffffffff811115613fd057613fcf613427565b5b613fda82546138ba565b613fe5828285613f21565b600060209050601f8311600181146140185760008415614006578287015190505b6140108582613f92565b865550614078565b601f19841661402686613e0c565b60005b8281101561404e57848901518255600182019150602085019450602081019050614029565b8683101561406b5784890151614067601f891682613f74565b8355505b6001600288020188555050505b505050505050565b6000604082019050614095600083018561328d565b6140a260208301846135e2565b9392505050565b7f4e487b7100000000000000000000000000000000000000000000000000000000600052601260045260246000fdfea264697066735822122074917ff83c232cc27fa3208688b1267c0a0b48b288e4e42d6f2d6c18daa33a3164736f6c63430008180033",
  "linkReferences": {},
  "deployedLinkReferences": {}
}