{"contracts/Logic.sol":{"PaymentLogic":{"abi":[{"inputs":[],"name":"calculatePrice","outputs":[],"stateMutability":"nonpayable","type":"function"},{"inputs":[],"name":"getPaymentPrice","outputs":[{"internalType":"uint256","name":"","type":"uint256"}],"stateMutability":"view","type":"function"},{"inputs":[],"name":"paymentPrice","outputs":[{"internalType":"uint256","name":"","type":"uint256"}],"stateMutability":"view","type":"function"}],"evm":{"bytecode":{"linkReferences":{},"object":"60806040524260015534801561001457600080fd5b50610247806100246000396000f3fe608060405234801561001057600080fd5b50600436106100415760003560e01c80635fe1dd1814610046578063d348b40914610064578063ee4d8a9e1461006e575b600080fd5b61004e61008c565b60405161005b91906100f1565b60405180910390f35b61006c610095565b005b6100766100d2565b60405161008391906100f1565b60405180910390f35b60008054905090565b6064633c6ef35f6001546219660d6100ad919061013b565b6100b7919061017d565b6100c191906101e0565b600181905550600154600081905550565b60005481565b6000819050919050565b6100eb816100d8565b82525050565b600060208201905061010660008301846100e2565b92915050565b7f4e487b7100000000000000000000000000000000000000000000000000000000600052601160045260246000fd5b6000610146826100d8565b9150610151836100d8565b925082820261015f816100d8565b915082820484148315176101765761017561010c565b5b5092915050565b6000610188826100d8565b9150610193836100d8565b92508282019050808211156101ab576101aa61010c565b5b92915050565b7f4e487b7100000000000000000000000000000000000000000000000000000000600052601260045260246000fd5b60006101eb826100d8565b91506101f6836100d8565b925082610206576102056101b1565b5b82820690509291505056fea264697066735822122032c1db5ab38fa70d55ce5c82d57e7a23ef32ab185cc1bba3725d0d3ea4b05d5064736f6c63430008180033","opcodes":"PUSH1 0x80 PUSH1 0x40 MSTORE TIMESTAMP PUSH1 0x1 SSTORE CALLVALUE DUP1 ISZERO PUSH2 0x14 JUMPI PUSH1 0x0 DUP1 REVERT JUMPDEST POP PUSH2 0x247 DUP1 PUSH2 0x24 PUSH1 0x0 CODECOPY PUSH1 0x0 RETURN INVALID PUSH1 0x80 PUSH1 0x40 MSTORE CALLVALUE DUP1 ISZERO PUSH2 0x10 JUMPI PUSH1 0x0 DUP1 REVERT JUMPDEST POP PUSH1 0x4 CALLDATASIZE LT PUSH2 0x41 JUMPI PUSH1 0x0 CALLDATALOAD PUSH1 0xE0 SHR DUP1 PUSH4 0x5FE1DD18 EQ PUSH2 0x46 JUMPI DUP1 PUSH4 0xD348B409 EQ PUSH2 0x64 JUMPI DUP1 PUSH4 0xEE4D8A9E EQ PUSH2 0x6E JUMPI JUMPDEST PUSH1 0x0 DUP1 REVERT JUMPDEST PUSH2 0x4E PUSH2 0x8C JUMP JUMPDEST PUSH1 0x40 MLOAD PUSH2 0x5B SWAP2 SWAP1 PUSH2 0xF1 JUMP JUMPDEST PUSH1 0x40 MLOAD DUP1 SWAP2 SUB SWAP1 RETURN JUMPDEST PUSH2 0x6C PUSH2 0x95 JUMP JUMPDEST STOP JUMPDEST PUSH2 0x76 PUSH2 0xD2 JUMP JUMPDEST PUSH1 0x40 MLOAD PUSH2 0x83 SWAP2 SWAP1 PUSH2 0xF1 JUMP JUMPDEST PUSH1 0x40 MLOAD DUP1 SWAP2 SUB SWAP1 RETURN JUMPDEST PUSH1 0x0 DUP1 SLOAD SWAP1 POP SWAP1 JUMP JUMPDEST PUSH1 0x64 PUSH4 0x3C6EF35F PUSH1 0x1 SLOAD PUSH3 0x19660D PUSH2 0xAD SWAP2 SWAP1 PUSH2 0x13B JUMP JUMPDEST PUSH2 0xB7 SWAP2 SWAP1 PUSH2 0x17D JUMP JUMPDEST PUSH2 0xC1 SWAP2 SWAP1 PUSH2 0x1E0 JUMP JUMPDEST PUSH1 0x1 DUP2 SWAP1 SSTORE POP PUSH1 0x1 SLOAD PUSH1 0x0 DUP2 SWAP1 SSTORE POP JUMP JUMPDEST PUSH1 0x0 SLOAD DUP2 JUMP JUMPDEST PUSH1 0x0 DUP2 SWAP1 POP SWAP2 SWAP1 POP JUMP JUMPDEST PUSH2 0xEB DUP2 PUSH2 0xD8 JUMP JUMPDEST DUP3 MSTORE POP POP JUMP JUMPDEST PUSH1 0x0 PUSH1 0x20 DUP3 ADD SWAP1 POP PUSH2 0x106 PUSH1 0x0 DUP4 ADD DUP5 PUSH2 0xE2 JUMP JUMPDEST SWAP3 SWAP2 POP POP JUMP JUMPDEST PUSH32 0x4E487B7100000000000000000000000000000000000000000000000000000000 PUSH1 0x0 MSTORE PUSH1 0x11 PUSH1 0x4 MSTORE PUSH1 0x24 PUSH1 0x0 REVERT JUMPDEST PUSH1 0x0 PUSH2 0x146 DUP3 PUSH2 0xD8 JUMP JUMPDEST SWAP2 POP PUSH2 0x151 DUP4 PUSH2 0xD8 JUMP JUMPDEST SWAP3 POP DUP3 DUP3 MUL PUSH2 0x15F DUP2 PUSH2 0xD8 JUMP JUMPDEST SWAP2 POP DUP3 DUP3 DIV DUP5 EQ DUP4 ISZERO OR PUSH2 0x176 JUMPI PUSH2 0x175 PUSH2 0x10C JUMP JUMPDEST JUMPDEST POP SWAP3 SWAP2 POP POP JUMP JUMPDEST PUSH1 0x0 PUSH2 0x188 DUP3 PUSH2 0xD8 JUMP JUMPDEST SWAP2 POP PUSH2 0x193 DUP4 PUSH2 0xD8 JUMP JUMPDEST SWAP3 POP DUP3 DUP3 ADD SWAP1 POP DUP1 DUP3 GT ISZERO PUSH2 0x1AB JUMPI PUSH2 0x1AA PUSH2 0x10C JUMP JUMPDEST JUMPDEST SWAP3 SWAP2 POP POP JUMP JUMPDEST PUSH32 0x4E487B7100000000000000000000000000000000000000000000000000000000 PUSH1 0x0 MSTORE PUSH1 0x12 PUSH1 0x4 MSTORE PUSH1 0x24 PUSH1 0x0 REVERT JUMPDEST PUSH1 0x0 PUSH2 0x1EB DUP3 PUSH2 0xD8 JUMP JUMPDEST SWAP2 POP PUSH2 0x1F6 DUP4 PUSH2 0xD8 JUMP JUMPDEST SWAP3 POP DUP3 PUSH2 0x206 JUMPI PUSH2 0x205 PUSH2 0x1B1 JUMP JUMPDEST JUMPDEST DUP3 DUP3 MOD SWAP1 POP SWAP3 SWAP2 POP POP JUMP INVALID LOG2 PUSH5 0x6970667358 0x22 SLT KECCAK256 ORIGIN 0xC1 0xDB GAS 0xB3 DUP16 0xA7 0xD SSTORE 0xCE TLOAD DUP3 0xD5 PUSH31 0x7A23EF32AB185CC1BBA3725D0D3EA4B05D5064736F6C634300081800330000 "},"methodIdentifiers":{"calculatePrice()":"d348b409","getPaymentPrice()":"5fe1dd18","paymentPrice()":"ee4d8a9e"}}}}}