{
  "_format": "hh-sol-artifact-1",
  "contractName": "PaymentLogic",
  "sourceName": "contracts/Logic.sol",
  "abi": [
    {
      "inputs": [],
      "name": "calculatePrice",
      "outputs": [],
      "stateMutability": "nonpayable",
      "type": "function"
    },
    {
      "inputs": [],
      "name": "getPaymentPrice",
      "outputs": [
        {
          "internalType": "uint256",
          "name": "",
          "type": "uint256"
        }
      ],
      "stateMutability": "view",
      "type": "function"
    },
    {
      "inputs": [],
      "name": "paymentPrice",
      "outputs": [
        {
          "internalType": "uint256",
          "name": "",
          "type": "uint256"
        }
      ],
      "stateMutability": "view",
      "type": "function"
    }
  ],
  "bytecode": "0x60806040524260015534801561001457600080fd5b50610247806100246000396000f3fe608060405234801561001057600080fd5b50600436106100415760003560e01c80635fe1dd1814610046578063d348b40914610064578063ee4d8a9e1461006e575b600080fd5b61004e61008c565b60405161005b91906100f1565b60405180910390f35b61006c610095565b005b6100766100d2565b60405161008391906100f1565b60405180910390f35b60008054905090565b6064633c6ef35f6001546219660d6100ad919061013b565b6100b7919061017d565b6100c191906101e0565b600181905550600154600081905550565b60005481565b6000819050919050565b6100eb816100d8565b82525050565b600060208201905061010660008301846100e2565b92915050565b7f4e487b7100000000000000000000000000000000000000000000000000000000600052601160045260246000fd5b6000610146826100d8565b9150610151836100d8565b925082820261015f816100d8565b915082820484148315176101765761017561010c565b5b5092915050565b6000610188826100d8565b9150610193836100d8565b92508282019050808211156101ab576101aa61010c565b5b92915050565b7f4e487b7100000000000000000000000000000000000000000000000000000000600052601260045260246000fd5b60006101eb826100d8565b91506101f6836100d8565b925082610206576102056101b1565b5b82820690509291505056fea264697066735822122032c1db5ab38fa70d55ce5c82d57e7a23ef32ab185cc1bba3725d0d3ea4b05d5064736f6c63430008180033",
  "linkReferences": {},
  "deployedLinkReferences": {}
}