{
  "_format": "hh-sol-artifact-1",
  "contractName": "PaymentLogic",
  "sourceName": "contracts/Logic.sol",
  "abi": [
    {
      "inputs": [],
      "name": "calculatePrice",
      "outputs": [],
      "stateMutability": "nonpayable",
      "type": "function"
    },
    {
      "inputs": [],
      "name": "paymentPrice",
      "outputs": [
        {
          "internalType": "uint256",
          "name": "",
          "type": "uint256"
        }
      ],
      "stateMutability": "view",
      "type": "function"
    }
  ],
  "bytecode": "0x608060405234801561001057600080fd5b5060d08061001f6000396000f3fe6080604052348015600f57600080fd5b506004361060325760003560e01c8063d348b409146037578063ee4d8a9e14603f575b600080fd5b603d6059565b005b60456064565b604051605091906081565b60405180910390f35b6103e8600081905550565b60005481565b6000819050919050565b607b81606a565b82525050565b6000602082019050609460008301846074565b9291505056fea2646970667358221220b205caba4957ed80c4ae4944382148261d8f5c0577c177d38036ff398872fb3a64736f6c63430008180033",
  "linkReferences": {},
  "deployedLinkReferences": {}
}