{
  "_format": "hh-sol-artifact-1",
  "contractName": "Proxy",
  "sourceName": "contracts/Proxy.sol",
  "abi": [
    {
      "inputs": [
        {
          "internalType": "address",
          "name": "target",
          "type": "address"
        }
      ],
      "name": "AddressEmptyCode",
      "type": "error"
    },
    {
      "inputs": [
        {
          "internalType": "address",
          "name": "implementation",
          "type": "address"
        }
      ],
      "name": "ERC1967InvalidImplementation",
      "type": "error"
    },
    {
      "inputs": [],
      "name": "ERC1967NonPayable",
      "type": "error"
    },
    {
      "inputs": [
        {
          "internalType": "address",
          "name": "sender",
          "type": "address"
        },
        {
          "internalType": "uint256",
          "name": "tokenId",
          "type": "uint256"
        },
        {
          "internalType": "address",
          "name": "owner",
          "type": "address"
        }
      ],
      "name": "ERC721IncorrectOwner",
      "type": "error"
    },
    {
      "inputs": [
        {
          "internalType": "address",
          "name": "operator",
          "type": "address"
        },
        {
          "internalType": "uint256",
          "name": "tokenId",
          "type": "uint256"
        }
      ],
      "name": "ERC721InsufficientApproval",
      "type": "error"
    },
    {
      "inputs": [
        {
          "internalType": "address",
          "name": "approver",
          "type": "address"
        }
      ],
      "name": "ERC721InvalidApprover",
      "type": "error"
    },
    {
      "inputs": [
        {
          "internalType": "address",
          "name": "operator",
          "type": "address"
        }
      ],
      "name": "ERC721InvalidOperator",
      "type": "error"
    },
    {
      "inputs": [
        {
          "internalType": "address",
          "name": "owner",
          "type": "address"
        }
      ],
      "name": "ERC721InvalidOwner",
      "type": "error"
    },
    {
      "inputs": [
        {
          "internalType": "address",
          "name": "receiver",
          "type": "address"
        }
      ],
      "name": "ERC721InvalidReceiver",
      "type": "error"
    },
    {
      "inputs": [
        {
          "internalType": "address",
          "name": "sender",
          "type": "address"
        }
      ],
      "name": "ERC721InvalidSender",
      "type": "error"
    },
    {
      "inputs": [
        {
          "internalType": "uint256",
          "name": "tokenId",
          "type": "uint256"
        }
      ],
      "name": "ERC721NonexistentToken",
      "type": "error"
    },
    {
      "inputs": [],
      "name": "FailedInnerCall",
      "type": "error"
    },
    {
      "inputs": [],
      "name": "InvalidInitialization",
      "type": "error"
    },
    {
      "inputs": [],
      "name": "NotInitializing",
      "type": "error"
    },
    {
      "inputs": [
        {
          "internalType": "address",
          "name": "owner",
          "type": "address"
        }
      ],
      "name": "OwnableInvalidOwner",
      "type": "error"
    },
    {
      "inputs": [
        {
          "internalType": "address",
          "name": "account",
          "type": "address"
        }
      ],
      "name": "OwnableUnauthorizedAccount",
      "type": "error"
    },
    {
      "inputs": [],
      "name": "UUPSUnauthorizedCallContext",
      "type": "error"
    },
    {
      "inputs": [
        {
          "internalType": "bytes32",
          "name": "slot",
          "type": "bytes32"
        }
      ],
      "name": "UUPSUnsupportedProxiableUUID",
      "type": "error"
    },
    {
      "anonymous": false,
      "inputs": [
        {
          "indexed": true,
          "internalType": "address",
          "name": "owner",
          "type": "address"
        },
        {
          "indexed": true,
          "internalType": "address",
          "name": "approved",
          "type": "address"
        },
        {
          "indexed": true,
          "internalType": "uint256",
          "name": "tokenId",
          "type": "uint256"
        }
      ],
      "name": "Approval",
      "type": "event"
    },
    {
      "anonymous": false,
      "inputs": [
        {
          "indexed": true,
          "internalType": "address",
          "name": "owner",
          "type": "address"
        },
        {
          "indexed": true,
          "internalType": "address",
          "name": "operator",
          "type": "address"
        },
        {
          "indexed": false,
          "internalType": "bool",
          "name": "approved",
          "type": "bool"
        }
      ],
      "name": "ApprovalForAll",
      "type": "event"
    },
    {
      "anonymous": false,
      "inputs": [
        {
          "indexed": false,
          "internalType": "uint256",
          "name": "_fromTokenId",
          "type": "uint256"
        },
        {
          "indexed": false,
          "internalType": "uint256",
          "name": "_toTokenId",
          "type": "uint256"
        }
      ],
      "name": "BatchMetadataUpdate",
      "type": "event"
    },
    {
      "anonymous": false,
      "inputs": [
        {
          "indexed": false,
          "internalType": "uint64",
          "name": "version",
          "type": "uint64"
        }
      ],
      "name": "Initialized",
      "type": "event"
    },
    {
      "anonymous": false,
      "inputs": [
        {
          "indexed": false,
          "internalType": "uint256",
          "name": "_tokenId",
          "type": "uint256"
        }
      ],
      "name": "MetadataUpdate",
      "type": "event"
    },
    {
      "anonymous": false,
      "inputs": [
        {
          "indexed": false,
          "internalType": "uint256",
          "name": "tokenId",
          "type": "uint256"
        },
        {
          "indexed": false,
          "internalType": "address",
          "name": "creator",
          "type": "address"
        },
        {
          "indexed": false,
          "internalType": "uint256",
          "name": "paymentAmount",
          "type": "uint256"
        }
      ],
      "name": "MintERC721",
      "type": "event"
    },
    {
      "anonymous": false,
      "inputs": [
        {
          "indexed": true,
          "internalType": "address",
          "name": "previousOwner",
          "type": "address"
        },
        {
          "indexed": true,
          "internalType": "address",
          "name": "newOwner",
          "type": "address"
        }
      ],
      "name": "OwnershipTransferred",
      "type": "event"
    },
    {
      "anonymous": false,
      "inputs": [
        {
          "indexed": false,
          "internalType": "uint256",
          "name": "newPrice",
          "type": "uint256"
        }
      ],
      "name": "PaymentPriceUpdated",
      "type": "event"
    },
    {
      "anonymous": false,
      "inputs": [
        {
          "indexed": true,
          "internalType": "address",
          "name": "from",
          "type": "address"
        },
        {
          "indexed": true,
          "internalType": "address",
          "name": "to",
          "type": "address"
        },
        {
          "indexed": true,
          "internalType": "uint256",
          "name": "tokenId",
          "type": "uint256"
        }
      ],
      "name": "Transfer",
      "type": "event"
    },
    {
      "anonymous": false,
      "inputs": [
        {
          "indexed": false,
          "internalType": "address",
          "name": "logicContract",
          "type": "address"
        }
      ],
      "name": "UpdateLogicContract",
      "type": "event"
    },
    {
      "anonymous": false,
      "inputs": [
        {
          "indexed": true,
          "internalType": "address",
          "name": "implementation",
          "type": "address"
        }
      ],
      "name": "Upgraded",
      "type": "event"
    },
    {
      "inputs": [],
      "name": "UPGRADE_INTERFACE_VERSION",
      "outputs": [
        {
          "internalType": "string",
          "name": "",
          "type": "string"
        }
      ],
      "stateMutability": "view",
      "type": "function"
    },
    {
      "inputs": [
        {
          "internalType": "address",
          "name": "to",
          "type": "address"
        },
        {
          "internalType": "uint256",
          "name": "tokenId",
          "type": "uint256"
        }
      ],
      "name": "approve",
      "outputs": [],
      "stateMutability": "nonpayable",
      "type": "function"
    },
    {
      "inputs": [
        {
          "internalType": "address",
          "name": "owner",
          "type": "address"
        }
      ],
      "name": "balanceOf",
      "outputs": [
        {
          "internalType": "uint256",
          "name": "",
          "type": "uint256"
        }
      ],
      "stateMutability": "view",
      "type": "function"
    },
    {
      "inputs": [
        {
          "internalType": "uint256",
          "name": "tokenId",
          "type": "uint256"
        }
      ],
      "name": "getApproved",
      "outputs": [
        {
          "internalType": "address",
          "name": "",
          "type": "address"
        }
      ],
      "stateMutability": "view",
      "type": "function"
    },
    {
      "inputs": [],
      "name": "getLogicContract",
      "outputs": [
        {
          "internalType": "address",
          "name": "",
          "type": "address"
        }
      ],
      "stateMutability": "view",
      "type": "function"
    },
    {
      "inputs": [],
      "name": "getNextTokenID",
      "outputs": [
        {
          "internalType": "uint256",
          "name": "",
          "type": "uint256"
        }
      ],
      "stateMutability": "view",
      "type": "function"
    },
    {
      "inputs": [],
      "name": "getPaymentPrice",
      "outputs": [
        {
          "internalType": "uint256",
          "name": "",
          "type": "uint256"
        }
      ],
      "stateMutability": "view",
      "type": "function"
    },
    {
      "inputs": [],
      "name": "getTokenContract",
      "outputs": [
        {
          "internalType": "address",
          "name": "",
          "type": "address"
        }
      ],
      "stateMutability": "view",
      "type": "function"
    },
    {
      "inputs": [
        {
          "internalType": "uint256",
          "name": "tokenId",
          "type": "uint256"
        }
      ],
      "name": "getTokenURI",
      "outputs": [
        {
          "internalType": "string",
          "name": "",
          "type": "string"
        }
      ],
      "stateMutability": "view",
      "type": "function"
    },
    {
      "inputs": [
        {
          "internalType": "address",
          "name": "_paymentToken",
          "type": "address"
        },
        {
          "internalType": "uint256",
          "name": "_paymentPrice",
          "type": "uint256"
        },
        {
          "internalType": "address",
          "name": "_paymentLogic",
          "type": "address"
        }
      ],
      "name": "initialize",
      "outputs": [],
      "stateMutability": "nonpayable",
      "type": "function"
    },
    {
      "inputs": [
        {
          "internalType": "address",
          "name": "owner",
          "type": "address"
        },
        {
          "internalType": "address",
          "name": "operator",
          "type": "address"
        }
      ],
      "name": "isApprovedForAll",
      "outputs": [
        {
          "internalType": "bool",
          "name": "",
          "type": "bool"
        }
      ],
      "stateMutability": "view",
      "type": "function"
    },
    {
      "inputs": [
        {
          "internalType": "address",
          "name": "recipient",
          "type": "address"
        },
        {
          "internalType": "string",
          "name": "tokenURI",
          "type": "string"
        }
      ],
      "name": "mintNFT",
      "outputs": [
        {
          "internalType": "uint256",
          "name": "",
          "type": "uint256"
        }
      ],
      "stateMutability": "nonpayable",
      "type": "function"
    },
    {
      "inputs": [],
      "name": "name",
      "outputs": [
        {
          "internalType": "string",
          "name": "",
          "type": "string"
        }
      ],
      "stateMutability": "view",
      "type": "function"
    },
    {
      "inputs": [],
      "name": "nextTokenId",
      "outputs": [
        {
          "internalType": "uint256",
          "name": "",
          "type": "uint256"
        }
      ],
      "stateMutability": "view",
      "type": "function"
    },
    {
      "inputs": [],
      "name": "owner",
      "outputs": [
        {
          "internalType": "address",
          "name": "",
          "type": "address"
        }
      ],
      "stateMutability": "view",
      "type": "function"
    },
    {
      "inputs": [
        {
          "internalType": "uint256",
          "name": "tokenId",
          "type": "uint256"
        }
      ],
      "name": "ownerOf",
      "outputs": [
        {
          "internalType": "address",
          "name": "",
          "type": "address"
        }
      ],
      "stateMutability": "view",
      "type": "function"
    },
    {
      "inputs": [],
      "name": "paymentLogic",
      "outputs": [
        {
          "internalType": "address",
          "name": "",
          "type": "address"
        }
      ],
      "stateMutability": "view",
      "type": "function"
    },
    {
      "inputs": [],
      "name": "paymentPrice",
      "outputs": [
        {
          "internalType": "uint256",
          "name": "",
          "type": "uint256"
        }
      ],
      "stateMutability": "view",
      "type": "function"
    },
    {
      "inputs": [],
      "name": "paymentToken",
      "outputs": [
        {
          "internalType": "contract ERC20Upgradeable",
          "name": "",
          "type": "address"
        }
      ],
      "stateMutability": "view",
      "type": "function"
    },
    {
      "inputs": [],
      "name": "paymentTokenAddress",
      "outputs": [
        {
          "internalType": "address",
          "name": "",
          "type": "address"
        }
      ],
      "stateMutability": "view",
      "type": "function"
    },
    {
      "inputs": [],
      "name": "proxiableUUID",
      "outputs": [
        {
          "internalType": "bytes32",
          "name": "",
          "type": "bytes32"
        }
      ],
      "stateMutability": "view",
      "type": "function"
    },
    {
      "inputs": [],
      "name": "renounceOwnership",
      "outputs": [],
      "stateMutability": "nonpayable",
      "type": "function"
    },
    {
      "inputs": [
        {
          "internalType": "address",
          "name": "from",
          "type": "address"
        },
        {
          "internalType": "address",
          "name": "to",
          "type": "address"
        },
        {
          "internalType": "uint256",
          "name": "tokenId",
          "type": "uint256"
        }
      ],
      "name": "safeTransferFrom",
      "outputs": [],
      "stateMutability": "nonpayable",
      "type": "function"
    },
    {
      "inputs": [
        {
          "internalType": "address",
          "name": "from",
          "type": "address"
        },
        {
          "internalType": "address",
          "name": "to",
          "type": "address"
        },
        {
          "internalType": "uint256",
          "name": "tokenId",
          "type": "uint256"
        },
        {
          "internalType": "bytes",
          "name": "data",
          "type": "bytes"
        }
      ],
      "name": "safeTransferFrom",
      "outputs": [],
      "stateMutability": "nonpayable",
      "type": "function"
    },
    {
      "inputs": [
        {
          "internalType": "address",
          "name": "operator",
          "type": "address"
        },
        {
          "internalType": "bool",
          "name": "approved",
          "type": "bool"
        }
      ],
      "name": "setApprovalForAll",
      "outputs": [],
      "stateMutability": "nonpayable",
      "type": "function"
    },
    {
      "inputs": [
        {
          "internalType": "bytes4",
          "name": "interfaceId",
          "type": "bytes4"
        }
      ],
      "name": "supportsInterface",
      "outputs": [
        {
          "internalType": "bool",
          "name": "",
          "type": "bool"
        }
      ],
      "stateMutability": "view",
      "type": "function"
    },
    {
      "inputs": [],
      "name": "symbol",
      "outputs": [
        {
          "internalType": "string",
          "name": "",
          "type": "string"
        }
      ],
      "stateMutability": "view",
      "type": "function"
    },
    {
      "inputs": [],
      "name": "testDelegateCall",
      "outputs": [
        {
          "internalType": "bool",
          "name": "",
          "type": "bool"
        }
      ],
      "stateMutability": "nonpayable",
      "type": "function"
    },
    {
      "inputs": [
        {
          "internalType": "uint256",
          "name": "tokenId",
          "type": "uint256"
        }
      ],
      "name": "tokenURI",
      "outputs": [
        {
          "internalType": "string",
          "name": "",
          "type": "string"
        }
      ],
      "stateMutability": "view",
      "type": "function"
    },
    {
      "inputs": [
        {
          "internalType": "address",
          "name": "from",
          "type": "address"
        },
        {
          "internalType": "address",
          "name": "to",
          "type": "address"
        },
        {
          "internalType": "uint256",
          "name": "tokenId",
          "type": "uint256"
        }
      ],
      "name": "transferFrom",
      "outputs": [],
      "stateMutability": "nonpayable",
      "type": "function"
    },
    {
      "inputs": [
        {
          "internalType": "address",
          "name": "newOwner",
          "type": "address"
        }
      ],
      "name": "transferOwnership",
      "outputs": [],
      "stateMutability": "nonpayable",
      "type": "function"
    },
    {
      "inputs": [
        {
          "internalType": "address",
          "name": "_paymentLogic",
          "type": "address"
        }
      ],
      "name": "updateLogicContract",
      "outputs": [],
      "stateMutability": "nonpayable",
      "type": "function"
    },
    {
      "inputs": [],
      "name": "updatePaymentPrice",
      "outputs": [],
      "stateMutability": "nonpayable",
      "type": "function"
    },
    {
      "inputs": [
        {
          "internalType": "address",
          "name": "newImplementation",
          "type": "address"
        },
        {
          "internalType": "bytes",
          "name": "data",
          "type": "bytes"
        }
      ],
      "name": "upgradeToAndCall",
      "outputs": [],
      "stateMutability": "payable",
      "type": "function"
    }
  ],
  "bytecode": "0x60a06040523073ffffffffffffffffffffffffffffffffffffffff1660809073ffffffffffffffffffffffffffffffffffffffff1681525034801561004357600080fd5b5060805161416961006d60003960008181611d0701528181611d5c0152611f1701526141696000f3fe6080604052600436106101f95760003560e01c8063745d4c011161010d578063b88d4fde116100a0578063e985e9c51161006f578063e985e9c514610718578063eacabe1414610755578063ead669c514610792578063ee4d8a9e146107a9578063f2fde38b146107d4576101f9565b8063b88d4fde1461065e578063c350a1b514610687578063c87b56dd146106b0578063e1e36341146106ed576101f9565b806395d89b41116100dc57806395d89b41146105b4578063a22cb465146105df578063ad3cb1cc14610608578063afb18fe714610633576101f9565b8063745d4c011461050857806375794a3c146105335780638b18c7e31461055e5780638da5cb5b14610589576101f9565b806342842e0e1161019057806352d1902d1161015f57806352d1902d146104215780635fe1dd181461044c5780636352211e1461047757806370a08231146104b4578063715018a6146104f1576101f9565b806342842e0e146103885780634a198119146103b15780634d2d6330146103dc5780634f1ef28614610405576101f9565b806323b872dd116101cc57806323b872dd146102cc57806328b7bede146102f55780633013ce29146103205780633bb3a24d1461034b576101f9565b806301ffc9a7146101fe57806306fdde031461023b578063081812fc14610266578063095ea7b3146102a3575b600080fd5b34801561020a57600080fd5b506102256004803603810190610220919061313e565b6107fd565b6040516102329190613186565b60405180910390f35b34801561024757600080fd5b5061025061085e565b60405161025d9190613231565b60405180910390f35b34801561027257600080fd5b5061028d60048036038101906102889190613289565b6108ff565b60405161029a91906132f7565b60405180910390f35b3480156102af57600080fd5b506102ca60048036038101906102c5919061333e565b61091b565b005b3480156102d857600080fd5b506102f360048036038101906102ee919061337e565b610931565b005b34801561030157600080fd5b5061030a610a33565b60405161031791906132f7565b60405180910390f35b34801561032c57600080fd5b50610335610a5d565b6040516103429190613430565b60405180910390f35b34801561035757600080fd5b50610372600480360381019061036d9190613289565b610a83565b60405161037f9190613231565b60405180910390f35b34801561039457600080fd5b506103af60048036038101906103aa919061337e565b610a95565b005b3480156103bd57600080fd5b506103c6610ab5565b6040516103d3919061345a565b60405180910390f35b3480156103e857600080fd5b5061040360048036038101906103fe9190613475565b610abf565b005b61041f600480360381019061041a91906135d7565b610bf4565b005b34801561042d57600080fd5b50610436610c13565b604051610443919061364c565b60405180910390f35b34801561045857600080fd5b50610461610c46565b60405161046e919061345a565b60405180910390f35b34801561048357600080fd5b5061049e60048036038101906104999190613289565b610c4f565b6040516104ab91906132f7565b60405180910390f35b3480156104c057600080fd5b506104db60048036038101906104d69190613475565b610c61565b6040516104e8919061345a565b60405180910390f35b3480156104fd57600080fd5b50610506610d2a565b005b34801561051457600080fd5b5061051d610d3e565b60405161052a91906132f7565b60405180910390f35b34801561053f57600080fd5b50610548610d64565b604051610555919061345a565b60405180910390f35b34801561056a57600080fd5b50610573610d6a565b60405161058091906132f7565b60405180910390f35b34801561059557600080fd5b5061059e610d94565b6040516105ab91906132f7565b60405180910390f35b3480156105c057600080fd5b506105c9610dcc565b6040516105d69190613231565b60405180910390f35b3480156105eb57600080fd5b5061060660048036038101906106019190613693565b610e6d565b005b34801561061457600080fd5b5061061d610e83565b60405161062a9190613231565b60405180910390f35b34801561063f57600080fd5b50610648610ebc565b60405161065591906132f7565b60405180910390f35b34801561066a57600080fd5b50610685600480360381019061068091906136d3565b610ee2565b005b34801561069357600080fd5b506106ae60048036038101906106a99190613756565b610eff565b005b3480156106bc57600080fd5b506106d760048036038101906106d29190613289565b6111ef565b6040516106e49190613231565b60405180910390f35b3480156106f957600080fd5b50610702611313565b60405161070f9190613186565b60405180910390f35b34801561072457600080fd5b5061073f600480360381019061073a91906137a9565b611433565b60405161074c9190613186565b60405180910390f35b34801561076157600080fd5b5061077c6004803603810190610777919061388a565b6114d5565b604051610789919061345a565b60405180910390f35b34801561079e57600080fd5b506107a7611634565b005b3480156107b557600080fd5b506107be6117c7565b6040516107cb919061345a565b60405180910390f35b3480156107e057600080fd5b506107fb60048036038101906107f69190613475565b6117cd565b005b6000634906490660e01b7bffffffffffffffffffffffffffffffffffffffffffffffffffffffff1916827bffffffffffffffffffffffffffffffffffffffffffffffffffffffff19161480610857575061085682611853565b5b9050919050565b6060600061086a611935565b905080600001805461087b90613915565b80601f01602080910402602001604051908101604052809291908181526020018280546108a790613915565b80156108f45780601f106108c9576101008083540402835291602001916108f4565b820191906000526020600020905b8154815290600101906020018083116108d757829003601f168201915b505050505091505090565b600061090a8261195d565b50610914826119e5565b9050919050565b61092d8282610928611a30565b611a3f565b5050565b600073ffffffffffffffffffffffffffffffffffffffff168273ffffffffffffffffffffffffffffffffffffffff16036109a35760006040517f64a0ae9200000000000000000000000000000000000000000000000000000000815260040161099a91906132f7565b60405180910390fd5b60006109b783836109b2611a30565b611a51565b90508373ffffffffffffffffffffffffffffffffffffffff168173ffffffffffffffffffffffffffffffffffffffff1614610a2d578382826040517f64283d7b000000000000000000000000000000000000000000000000000000008152600401610a2493929190613946565b60405180910390fd5b50505050565b6000600360009054906101000a900473ffffffffffffffffffffffffffffffffffffffff16905090565b600260009054906101000a900473ffffffffffffffffffffffffffffffffffffffff1681565b6060610a8e826111ef565b9050919050565b610ab083838360405180602001604052806000815250610ee2565b505050565b6000600154905090565b610ac7611c7e565b8073ffffffffffffffffffffffffffffffffffffffff16600460009054906101000a900473ffffffffffffffffffffffffffffffffffffffff1673ffffffffffffffffffffffffffffffffffffffff1603610b57576040517f08c379a0000000000000000000000000000000000000000000000000000000008152600401610b4e906139ef565b60405180910390fd5b80600460006101000a81548173ffffffffffffffffffffffffffffffffffffffff021916908373ffffffffffffffffffffffffffffffffffffffff1602179055507fdc1b03aa7118707aafb4044faaf6670a730f5cf9db870157f5ce90ad6c9df4ea600460009054906101000a900473ffffffffffffffffffffffffffffffffffffffff16604051610be991906132f7565b60405180910390a150565b610bfc611d05565b610c0582611deb565b610c0f8282611df6565b5050565b6000610c1d611f15565b7f360894a13ba1a3210667c828492db98dca3e2076cc3735a920a3ca505d382bbc60001b905090565b60008054905090565b6000610c5a8261195d565b9050919050565b600080610c6c611935565b9050600073ffffffffffffffffffffffffffffffffffffffff168373ffffffffffffffffffffffffffffffffffffffff1603610ce05760006040517f89c62b64000000000000000000000000000000000000000000000000000000008152600401610cd791906132f7565b60405180910390fd5b8060030160008473ffffffffffffffffffffffffffffffffffffffff1673ffffffffffffffffffffffffffffffffffffffff16815260200190815260200160002054915050919050565b610d32611c7e565b610d3c6000611f9c565b565b600460009054906101000a900473ffffffffffffffffffffffffffffffffffffffff1681565b60015481565b6000600460009054906101000a900473ffffffffffffffffffffffffffffffffffffffff16905090565b600080610d9f612073565b90508060000160009054906101000a900473ffffffffffffffffffffffffffffffffffffffff1691505090565b60606000610dd8611935565b9050806001018054610de990613915565b80601f0160208091040260200160405190810160405280929190818152602001828054610e1590613915565b8015610e625780601f10610e3757610100808354040283529160200191610e62565b820191906000526020600020905b815481529060010190602001808311610e4557829003601f168201915b505050505091505090565b610e7f610e78611a30565b838361209b565b5050565b6040518060400160405280600581526020017f352e302e3000000000000000000000000000000000000000000000000000000081525081565b600360009054906101000a900473ffffffffffffffffffffffffffffffffffffffff1681565b610eed848484610931565b610ef984848484612219565b50505050565b6000610f096123d0565b905060008160000160089054906101000a900460ff1615905060008260000160009054906101000a900467ffffffffffffffff1690506000808267ffffffffffffffff16148015610f575750825b9050600060018367ffffffffffffffff16148015610f8c575060003073ffffffffffffffffffffffffffffffffffffffff163b145b905081158015610f9a575080155b15610fd1576040517ff92ee8a900000000000000000000000000000000000000000000000000000000815260040160405180910390fd5b60018560000160006101000a81548167ffffffffffffffff021916908367ffffffffffffffff16021790555083156110215760018560000160086101000a81548160ff0219169083151502179055505b6110956040518060400160405280600481526020017f4954454d000000000000000000000000000000000000000000000000000000008152506040518060400160405280600381526020017f4e465400000000000000000000000000000000000000000000000000000000008152506123f8565b61109d61240e565b6110a5612418565b6110ae33612422565b87600260006101000a81548173ffffffffffffffffffffffffffffffffffffffff021916908373ffffffffffffffffffffffffffffffffffffffff16021790555087600360006101000a81548173ffffffffffffffffffffffffffffffffffffffff021916908373ffffffffffffffffffffffffffffffffffffffff16021790555086600081905550600060018190555085600460006101000a81548173ffffffffffffffffffffffffffffffffffffffff021916908373ffffffffffffffffffffffffffffffffffffffff160217905550611189336117cd565b83156111e55760008560000160086101000a81548160ff0219169083151502179055507fc7f505b2f371ae2175ee4913f4499e1f2633a7b5936321eed1cdaeb6115181d260016040516111dc9190613a5e565b60405180910390a15b5050505050505050565b606060006111fb612436565b90506112068361195d565b506000816000016000858152602001908152602001600020805461122990613915565b80601f016020809104026020016040519081016040528092919081815260200182805461125590613915565b80156112a25780601f10611277576101008083540402835291602001916112a2565b820191906000526020600020905b81548152906001019060200180831161128557829003601f168201915b5050505050905060006112b361245e565b905060008151036112c95781935050505061130e565b6000825111156112ff5780826040516020016112e6929190613ab5565b604051602081830303815290604052935050505061130e565b61130885612475565b93505050505b919050565b600061131d611c7e565b6000600460009054906101000a900473ffffffffffffffffffffffffffffffffffffffff1673ffffffffffffffffffffffffffffffffffffffff166040516024016040516020818303038152906040527fd348b409000000000000000000000000000000000000000000000000000000007bffffffffffffffffffffffffffffffffffffffffffffffffffffffff19166020820180517bffffffffffffffffffffffffffffffffffffffffffffffffffffffff83818316178352505050506040516113e89190613b20565b600060405180830381855af49150503d8060008114611423576040519150601f19603f3d011682016040523d82523d6000602084013e611428565b606091505b505090508091505090565b60008061143e611935565b90508060050160008573ffffffffffffffffffffffffffffffffffffffff1673ffffffffffffffffffffffffffffffffffffffff16815260200190815260200160002060008473ffffffffffffffffffffffffffffffffffffffff1673ffffffffffffffffffffffffffffffffffffffff16815260200190815260200160002060009054906101000a900460ff1691505092915050565b6000600260009054906101000a900473ffffffffffffffffffffffffffffffffffffffff1673ffffffffffffffffffffffffffffffffffffffff166323b872dd33306000546040518463ffffffff1660e01b815260040161153893929190613b37565b6020604051808303816000875af1158015611557573d6000803e3d6000fd5b505050506040513d601f19601f8201168201806040525081019061157b9190613b83565b6115ba576040517f08c379a00000000000000000000000000000000000000000000000000000000081526004016115b190613bfc565b60405180910390fd5b6115c6836001546124de565b6115d2600154836125d7565b7fc944c309a13a562602929546d511d51494983314457ab0c385bfe653a757feeb6001543360005460405161160993929190613c1c565b60405180910390a16001600081548092919061162490613c82565b9190505550600154905092915050565b61163c611c7e565b6000600460009054906101000a900473ffffffffffffffffffffffffffffffffffffffff1673ffffffffffffffffffffffffffffffffffffffff166040516024016040516020818303038152906040527fd348b409000000000000000000000000000000000000000000000000000000007bffffffffffffffffffffffffffffffffffffffffffffffffffffffff19166020820180517bffffffffffffffffffffffffffffffffffffffffffffffffffffffff83818316178352505050506040516117079190613b20565b600060405180830381855af49150503d8060008114611742576040519150601f19603f3d011682016040523d82523d6000602084013e611747565b606091505b505090508061178b576040517f08c379a000000000000000000000000000000000000000000000000000000000815260040161178290613d16565b60405180910390fd5b7f0a0d60154d0f5f0c257a1e7e3a6a4bee1757ff32f4c0364da40df2aad9f7692f6000546040516117bc919061345a565b60405180910390a150565b60005481565b6117d5611c7e565b600073ffffffffffffffffffffffffffffffffffffffff168173ffffffffffffffffffffffffffffffffffffffff16036118475760006040517f1e4fbdf700000000000000000000000000000000000000000000000000000000815260040161183e91906132f7565b60405180910390fd5b61185081611f9c565b50565b60007f80ac58cd000000000000000000000000000000000000000000000000000000007bffffffffffffffffffffffffffffffffffffffffffffffffffffffff1916827bffffffffffffffffffffffffffffffffffffffffffffffffffffffff1916148061191e57507f5b5e139f000000000000000000000000000000000000000000000000000000007bffffffffffffffffffffffffffffffffffffffffffffffffffffffff1916827bffffffffffffffffffffffffffffffffffffffffffffffffffffffff1916145b8061192e575061192d82612642565b5b9050919050565b60007f80bb2b638cc20bc4d0a60d66940f3ab4a00c1d7b313497ca82fb0b4ab0079300905090565b600080611969836126ac565b9050600073ffffffffffffffffffffffffffffffffffffffff168173ffffffffffffffffffffffffffffffffffffffff16036119dc57826040517f7e2732890000000000000000000000000000000000000000000000000000000081526004016119d3919061345a565b60405180910390fd5b80915050919050565b6000806119f0611935565b905080600401600084815260200190815260200160002060009054906101000a900473ffffffffffffffffffffffffffffffffffffffff16915050919050565b6000611a3a6126f7565b905090565b611a4c83838360016126ff565b505050565b600080611a5c611935565b90506000611a69856126ac565b9050600073ffffffffffffffffffffffffffffffffffffffff168473ffffffffffffffffffffffffffffffffffffffff1614611aab57611aaa8185876128d3565b5b600073ffffffffffffffffffffffffffffffffffffffff168173ffffffffffffffffffffffffffffffffffffffff1614611b3e57611aed6000866000806126ff565b60018260030160008373ffffffffffffffffffffffffffffffffffffffff1673ffffffffffffffffffffffffffffffffffffffff168152602001908152602001600020600082825403925050819055505b600073ffffffffffffffffffffffffffffffffffffffff168673ffffffffffffffffffffffffffffffffffffffff1614611bc35760018260030160008873ffffffffffffffffffffffffffffffffffffffff1673ffffffffffffffffffffffffffffffffffffffff168152602001908152602001600020600082825401925050819055505b8582600201600087815260200190815260200160002060006101000a81548173ffffffffffffffffffffffffffffffffffffffff021916908373ffffffffffffffffffffffffffffffffffffffff160217905550848673ffffffffffffffffffffffffffffffffffffffff168273ffffffffffffffffffffffffffffffffffffffff167fddf252ad1be2c89b69c2b068fc378daa952ba7f163c4a11628f55a4df523b3ef60405160405180910390a480925050509392505050565b611c86611a30565b73ffffffffffffffffffffffffffffffffffffffff16611ca4610d94565b73ffffffffffffffffffffffffffffffffffffffff1614611d0357611cc7611a30565b6040517f118cdaa7000000000000000000000000000000000000000000000000000000008152600401611cfa91906132f7565b60405180910390fd5b565b7f000000000000000000000000000000000000000000000000000000000000000073ffffffffffffffffffffffffffffffffffffffff163073ffffffffffffffffffffffffffffffffffffffff161480611db257507f000000000000000000000000000000000000000000000000000000000000000073ffffffffffffffffffffffffffffffffffffffff16611d99612997565b73ffffffffffffffffffffffffffffffffffffffff1614155b15611de9576040517fe07c8dba00000000000000000000000000000000000000000000000000000000815260040160405180910390fd5b565b611df3611c7e565b50565b8173ffffffffffffffffffffffffffffffffffffffff166352d1902d6040518163ffffffff1660e01b8152600401602060405180830381865afa925050508015611e5e57506040513d601f19601f82011682018060405250810190611e5b9190613d62565b60015b611e9f57816040517f4c9c8ce3000000000000000000000000000000000000000000000000000000008152600401611e9691906132f7565b60405180910390fd5b7f360894a13ba1a3210667c828492db98dca3e2076cc3735a920a3ca505d382bbc60001b8114611f0657806040517faa1d49a4000000000000000000000000000000000000000000000000000000008152600401611efd919061364c565b60405180910390fd5b611f1083836129ee565b505050565b7f000000000000000000000000000000000000000000000000000000000000000073ffffffffffffffffffffffffffffffffffffffff163073ffffffffffffffffffffffffffffffffffffffff1614611f9a576040517fe07c8dba00000000000000000000000000000000000000000000000000000000815260040160405180910390fd5b565b6000611fa6612073565b905060008160000160009054906101000a900473ffffffffffffffffffffffffffffffffffffffff169050828260000160006101000a81548173ffffffffffffffffffffffffffffffffffffffff021916908373ffffffffffffffffffffffffffffffffffffffff1602179055508273ffffffffffffffffffffffffffffffffffffffff168173ffffffffffffffffffffffffffffffffffffffff167f8be0079c531659141344cd1fd0a4f28419497f9722a3daafe3b4186f6b6457e060405160405180910390a3505050565b60007f9016d09d72d40fdae2fd8ceac6b6234c7706214fd39c1cd1e609a0528c199300905090565b60006120a5611935565b9050600073ffffffffffffffffffffffffffffffffffffffff168373ffffffffffffffffffffffffffffffffffffffff160361211857826040517f5b08ba1800000000000000000000000000000000000000000000000000000000815260040161210f91906132f7565b60405180910390fd5b818160050160008673ffffffffffffffffffffffffffffffffffffffff1673ffffffffffffffffffffffffffffffffffffffff16815260200190815260200160002060008573ffffffffffffffffffffffffffffffffffffffff1673ffffffffffffffffffffffffffffffffffffffff16815260200190815260200160002060006101000a81548160ff0219169083151502179055508273ffffffffffffffffffffffffffffffffffffffff168473ffffffffffffffffffffffffffffffffffffffff167f17307eab39ab6107e8899845ad3d59bd9653f200f220920489ca2b5937696c318460405161220b9190613186565b60405180910390a350505050565b60008373ffffffffffffffffffffffffffffffffffffffff163b11156123ca578273ffffffffffffffffffffffffffffffffffffffff1663150b7a0261225d611a30565b8685856040518563ffffffff1660e01b815260040161227f9493929190613dd9565b6020604051808303816000875af19250505080156122bb57506040513d601f19601f820116820180604052508101906122b89190613e3a565b60015b61233f573d80600081146122eb576040519150601f19603f3d011682016040523d82523d6000602084013e6122f0565b606091505b50600081510361233757836040517f64a0ae9200000000000000000000000000000000000000000000000000000000815260040161232e91906132f7565b60405180910390fd5b805181602001fd5b63150b7a0260e01b7bffffffffffffffffffffffffffffffffffffffffffffffffffffffff1916817bffffffffffffffffffffffffffffffffffffffffffffffffffffffff1916146123c857836040517f64a0ae920000000000000000000000000000000000000000000000000000000081526004016123bf91906132f7565b60405180910390fd5b505b50505050565b60007ff0c57e16840df040f15088dc2f81fe391c3923bec73e23a9662efc9c229c6a00905090565b612400612a61565b61240a8282612aa1565b5050565b612416612a61565b565b612420612a61565b565b61242a612a61565b61243381612ade565b50565b60007f0542a41881ee128a365a727b282c86fa859579490b9bb45aab8503648c8e7900905090565b606060405180602001604052806000815250905090565b60606124808261195d565b50600061248b61245e565b905060008151116124ab57604051806020016040528060008152506124d6565b806124b584612b64565b6040516020016124c6929190613ab5565b6040516020818303038152906040525b915050919050565b600073ffffffffffffffffffffffffffffffffffffffff168273ffffffffffffffffffffffffffffffffffffffff16036125505760006040517f64a0ae9200000000000000000000000000000000000000000000000000000000815260040161254791906132f7565b60405180910390fd5b600061255e83836000611a51565b9050600073ffffffffffffffffffffffffffffffffffffffff168173ffffffffffffffffffffffffffffffffffffffff16146125d25760006040517f73c6ac6e0000000000000000000000000000000000000000000000000000000081526004016125c991906132f7565b60405180910390fd5b505050565b60006125e1612436565b90508181600001600085815260200190815260200160002090816126059190614009565b507ff8e1a15aba9398e019f0b49df1a4fde98ee17ae345cb5f6b5e2c27f5033e8ce783604051612635919061345a565b60405180910390a1505050565b60007f01ffc9a7000000000000000000000000000000000000000000000000000000007bffffffffffffffffffffffffffffffffffffffffffffffffffffffff1916827bffffffffffffffffffffffffffffffffffffffffffffffffffffffff1916149050919050565b6000806126b7611935565b905080600201600084815260200190815260200160002060009054906101000a900473ffffffffffffffffffffffffffffffffffffffff16915050919050565b600033905090565b6000612709611935565b905081806127445750600073ffffffffffffffffffffffffffffffffffffffff168373ffffffffffffffffffffffffffffffffffffffff1614155b156128785760006127548561195d565b9050600073ffffffffffffffffffffffffffffffffffffffff168473ffffffffffffffffffffffffffffffffffffffff16141580156127bf57508373ffffffffffffffffffffffffffffffffffffffff168173ffffffffffffffffffffffffffffffffffffffff1614155b80156127d257506127d08185611433565b155b1561281457836040517fa9fbf51f00000000000000000000000000000000000000000000000000000000815260040161280b91906132f7565b60405180910390fd5b821561287657848673ffffffffffffffffffffffffffffffffffffffff168273ffffffffffffffffffffffffffffffffffffffff167f8c5be1e5ebec7d5bd14f71427d1e84f3dd0314c0f7b2291e5b200ac8c7c3b92560405160405180910390a45b505b8481600401600086815260200190815260200160002060006101000a81548173ffffffffffffffffffffffffffffffffffffffff021916908373ffffffffffffffffffffffffffffffffffffffff1602179055505050505050565b6128de838383612c32565b61299257600073ffffffffffffffffffffffffffffffffffffffff168373ffffffffffffffffffffffffffffffffffffffff160361295357806040517f7e27328900000000000000000000000000000000000000000000000000000000815260040161294a919061345a565b60405180910390fd5b81816040517f177e802f0000000000000000000000000000000000000000000000000000000081526004016129899291906140db565b60405180910390fd5b505050565b60006129c57f360894a13ba1a3210667c828492db98dca3e2076cc3735a920a3ca505d382bbc60001b612cf3565b60000160009054906101000a900473ffffffffffffffffffffffffffffffffffffffff16905090565b6129f782612cfd565b8173ffffffffffffffffffffffffffffffffffffffff167fbc7cd75a20ee27fd9adebab32041f755214dbc6bffa90cc0225b39da2e5c2d3b60405160405180910390a2600081511115612a5457612a4e8282612dca565b50612a5d565b612a5c612e4e565b5b5050565b612a69612e8b565b612a9f576040517fd7e6bcf800000000000000000000000000000000000000000000000000000000815260040160405180910390fd5b565b612aa9612a61565b6000612ab3611935565b905082816000019081612ac69190614009565b5081816001019081612ad89190614009565b50505050565b612ae6612a61565b600073ffffffffffffffffffffffffffffffffffffffff168173ffffffffffffffffffffffffffffffffffffffff1603612b585760006040517f1e4fbdf7000000000000000000000000000000000000000000000000000000008152600401612b4f91906132f7565b60405180910390fd5b612b6181611f9c565b50565b606060006001612b7384612eab565b01905060008167ffffffffffffffff811115612b9257612b916134ac565b5b6040519080825280601f01601f191660200182016040528015612bc45781602001600182028036833780820191505090505b509050600082602001820190505b600115612c27578080600190039150507f3031323334353637383961626364656600000000000000000000000000000000600a86061a8153600a8581612c1b57612c1a614104565b5b04945060008503612bd2575b819350505050919050565b60008073ffffffffffffffffffffffffffffffffffffffff168373ffffffffffffffffffffffffffffffffffffffff1614158015612cea57508273ffffffffffffffffffffffffffffffffffffffff168473ffffffffffffffffffffffffffffffffffffffff161480612cab5750612caa8484611433565b5b80612ce957508273ffffffffffffffffffffffffffffffffffffffff16612cd1836119e5565b73ffffffffffffffffffffffffffffffffffffffff16145b5b90509392505050565b6000819050919050565b60008173ffffffffffffffffffffffffffffffffffffffff163b03612d5957806040517f4c9c8ce3000000000000000000000000000000000000000000000000000000008152600401612d5091906132f7565b60405180910390fd5b80612d867f360894a13ba1a3210667c828492db98dca3e2076cc3735a920a3ca505d382bbc60001b612cf3565b60000160006101000a81548173ffffffffffffffffffffffffffffffffffffffff021916908373ffffffffffffffffffffffffffffffffffffffff16021790555050565b60606000808473ffffffffffffffffffffffffffffffffffffffff1684604051612df49190613b20565b600060405180830381855af49150503d8060008114612e2f576040519150601f19603f3d011682016040523d82523d6000602084013e612e34565b606091505b5091509150612e44858383612ffe565b9250505092915050565b6000341115612e89576040517fb398979f00000000000000000000000000000000000000000000000000000000815260040160405180910390fd5b565b6000612e956123d0565b60000160089054906101000a900460ff16905090565b600080600090507a184f03e93ff9f4daa797ed6e38ed64bf6a1f0100000000000000008310612f09577a184f03e93ff9f4daa797ed6e38ed64bf6a1f0100000000000000008381612eff57612efe614104565b5b0492506040810190505b6d04ee2d6d415b85acef81000000008310612f46576d04ee2d6d415b85acef81000000008381612f3c57612f3b614104565b5b0492506020810190505b662386f26fc100008310612f7557662386f26fc100008381612f6b57612f6a614104565b5b0492506010810190505b6305f5e1008310612f9e576305f5e1008381612f9457612f93614104565b5b0492506008810190505b6127108310612fc3576127108381612fb957612fb8614104565b5b0492506004810190505b60648310612fe65760648381612fdc57612fdb614104565b5b0492506002810190505b600a8310612ff5576001810190505b80915050919050565b6060826130135761300e8261308d565b613085565b6000825114801561303b575060008473ffffffffffffffffffffffffffffffffffffffff163b145b1561307d57836040517f9996b31500000000000000000000000000000000000000000000000000000000815260040161307491906132f7565b60405180910390fd5b819050613086565b5b9392505050565b6000815111156130a05780518082602001fd5b6040517f1425ea4200000000000000000000000000000000000000000000000000000000815260040160405180910390fd5b6000604051905090565b600080fd5b600080fd5b60007fffffffff0000000000000000000000000000000000000000000000000000000082169050919050565b61311b816130e6565b811461312657600080fd5b50565b60008135905061313881613112565b92915050565b600060208284031215613154576131536130dc565b5b600061316284828501613129565b91505092915050565b60008115159050919050565b6131808161316b565b82525050565b600060208201905061319b6000830184613177565b92915050565b600081519050919050565b600082825260208201905092915050565b60005b838110156131db5780820151818401526020810190506131c0565b60008484015250505050565b6000601f19601f8301169050919050565b6000613203826131a1565b61320d81856131ac565b935061321d8185602086016131bd565b613226816131e7565b840191505092915050565b6000602082019050818103600083015261324b81846131f8565b905092915050565b6000819050919050565b61326681613253565b811461327157600080fd5b50565b6000813590506132838161325d565b92915050565b60006020828403121561329f5761329e6130dc565b5b60006132ad84828501613274565b91505092915050565b600073ffffffffffffffffffffffffffffffffffffffff82169050919050565b60006132e1826132b6565b9050919050565b6132f1816132d6565b82525050565b600060208201905061330c60008301846132e8565b92915050565b61331b816132d6565b811461332657600080fd5b50565b60008135905061333881613312565b92915050565b60008060408385031215613355576133546130dc565b5b600061336385828601613329565b925050602061337485828601613274565b9150509250929050565b600080600060608486031215613397576133966130dc565b5b60006133a586828701613329565b93505060206133b686828701613329565b92505060406133c786828701613274565b9150509250925092565b6000819050919050565b60006133f66133f16133ec846132b6565b6133d1565b6132b6565b9050919050565b6000613408826133db565b9050919050565b600061341a826133fd565b9050919050565b61342a8161340f565b82525050565b60006020820190506134456000830184613421565b92915050565b61345481613253565b82525050565b600060208201905061346f600083018461344b565b92915050565b60006020828403121561348b5761348a6130dc565b5b600061349984828501613329565b91505092915050565b600080fd5b600080fd5b7f4e487b7100000000000000000000000000000000000000000000000000000000600052604160045260246000fd5b6134e4826131e7565b810181811067ffffffffffffffff82111715613503576135026134ac565b5b80604052505050565b60006135166130d2565b905061352282826134db565b919050565b600067ffffffffffffffff821115613542576135416134ac565b5b61354b826131e7565b9050602081019050919050565b82818337600083830152505050565b600061357a61357584613527565b61350c565b905082815260208101848484011115613596576135956134a7565b5b6135a1848285613558565b509392505050565b600082601f8301126135be576135bd6134a2565b5b81356135ce848260208601613567565b91505092915050565b600080604083850312156135ee576135ed6130dc565b5b60006135fc85828601613329565b925050602083013567ffffffffffffffff81111561361d5761361c6130e1565b5b613629858286016135a9565b9150509250929050565b6000819050919050565b61364681613633565b82525050565b6000602082019050613661600083018461363d565b92915050565b6136708161316b565b811461367b57600080fd5b50565b60008135905061368d81613667565b92915050565b600080604083850312156136aa576136a96130dc565b5b60006136b885828601613329565b92505060206136c98582860161367e565b9150509250929050565b600080600080608085870312156136ed576136ec6130dc565b5b60006136fb87828801613329565b945050602061370c87828801613329565b935050604061371d87828801613274565b925050606085013567ffffffffffffffff81111561373e5761373d6130e1565b5b61374a878288016135a9565b91505092959194509250565b60008060006060848603121561376f5761376e6130dc565b5b600061377d86828701613329565b935050602061378e86828701613274565b925050604061379f86828701613329565b9150509250925092565b600080604083850312156137c0576137bf6130dc565b5b60006137ce85828601613329565b92505060206137df85828601613329565b9150509250929050565b600067ffffffffffffffff821115613804576138036134ac565b5b61380d826131e7565b9050602081019050919050565b600061382d613828846137e9565b61350c565b905082815260208101848484011115613849576138486134a7565b5b613854848285613558565b509392505050565b600082601f830112613871576138706134a2565b5b813561388184826020860161381a565b91505092915050565b600080604083850312156138a1576138a06130dc565b5b60006138af85828601613329565b925050602083013567ffffffffffffffff8111156138d0576138cf6130e1565b5b6138dc8582860161385c565b9150509250929050565b7f4e487b7100000000000000000000000000000000000000000000000000000000600052602260045260246000fd5b6000600282049050600182168061392d57607f821691505b6020821081036139405761393f6138e6565b5b50919050565b600060608201905061395b60008301866132e8565b613968602083018561344b565b61397560408301846132e8565b949350505050565b7f49742773207468652073616d6520636f6e74726163742061646472657373206160008201527f73206265666f72652e0000000000000000000000000000000000000000000000602082015250565b60006139d96029836131ac565b91506139e48261397d565b604082019050919050565b60006020820190508181036000830152613a08816139cc565b9050919050565b6000819050919050565b600067ffffffffffffffff82169050919050565b6000613a48613a43613a3e84613a0f565b6133d1565b613a19565b9050919050565b613a5881613a2d565b82525050565b6000602082019050613a736000830184613a4f565b92915050565b600081905092915050565b6000613a8f826131a1565b613a998185613a79565b9350613aa98185602086016131bd565b80840191505092915050565b6000613ac18285613a84565b9150613acd8284613a84565b91508190509392505050565b600081519050919050565b600081905092915050565b6000613afa82613ad9565b613b048185613ae4565b9350613b148185602086016131bd565b80840191505092915050565b6000613b2c8284613aef565b915081905092915050565b6000606082019050613b4c60008301866132e8565b613b5960208301856132e8565b613b66604083018461344b565b949350505050565b600081519050613b7d81613667565b92915050565b600060208284031215613b9957613b986130dc565b5b6000613ba784828501613b6e565b91505092915050565b7f5061796d656e74206661696c6564000000000000000000000000000000000000600082015250565b6000613be6600e836131ac565b9150613bf182613bb0565b602082019050919050565b60006020820190508181036000830152613c1581613bd9565b9050919050565b6000606082019050613c31600083018661344b565b613c3e60208301856132e8565b613c4b604083018461344b565b949350505050565b7f4e487b7100000000000000000000000000000000000000000000000000000000600052601160045260246000fd5b6000613c8d82613253565b91507fffffffffffffffffffffffffffffffffffffffffffffffffffffffffffffffff8203613cbf57613cbe613c53565b5b600182019050919050565b7f4c6f6769632063616c6c206661696c6564000000000000000000000000000000600082015250565b6000613d006011836131ac565b9150613d0b82613cca565b602082019050919050565b60006020820190508181036000830152613d2f81613cf3565b9050919050565b613d3f81613633565b8114613d4a57600080fd5b50565b600081519050613d5c81613d36565b92915050565b600060208284031215613d7857613d776130dc565b5b6000613d8684828501613d4d565b91505092915050565b600082825260208201905092915050565b6000613dab82613ad9565b613db58185613d8f565b9350613dc58185602086016131bd565b613dce816131e7565b840191505092915050565b6000608082019050613dee60008301876132e8565b613dfb60208301866132e8565b613e08604083018561344b565b8181036060830152613e1a8184613da0565b905095945050505050565b600081519050613e3481613112565b92915050565b600060208284031215613e5057613e4f6130dc565b5b6000613e5e84828501613e25565b91505092915050565b60008190508160005260206000209050919050565b60006020601f8301049050919050565b600082821b905092915050565b600060088302613ec97fffffffffffffffffffffffffffffffffffffffffffffffffffffffffffffffff82613e8c565b613ed38683613e8c565b95508019841693508086168417925050509392505050565b6000613f06613f01613efc84613253565b6133d1565b613253565b9050919050565b6000819050919050565b613f2083613eeb565b613f34613f2c82613f0d565b848454613e99565b825550505050565b600090565b613f49613f3c565b613f54818484613f17565b505050565b5b81811015613f7857613f6d600082613f41565b600181019050613f5a565b5050565b601f821115613fbd57613f8e81613e67565b613f9784613e7c565b81016020851015613fa6578190505b613fba613fb285613e7c565b830182613f59565b50505b505050565b600082821c905092915050565b6000613fe060001984600802613fc2565b1980831691505092915050565b6000613ff98383613fcf565b9150826002028217905092915050565b614012826131a1565b67ffffffffffffffff81111561402b5761402a6134ac565b5b6140358254613915565b614040828285613f7c565b600060209050601f8311600181146140735760008415614061578287015190505b61406b8582613fed565b8655506140d3565b601f19841661408186613e67565b60005b828110156140a957848901518255600182019150602085019450602081019050614084565b868310156140c657848901516140c2601f891682613fcf565b8355505b6001600288020188555050505b505050505050565b60006040820190506140f060008301856132e8565b6140fd602083018461344b565b9392505050565b7f4e487b7100000000000000000000000000000000000000000000000000000000600052601260045260246000fdfea2646970667358221220fcb7975d42469e8ad08d9203b610cf0555f4fd8607ad92f458f4c374c1ddd0e164736f6c63430008180033",
  "linkReferences": {},
  "deployedLinkReferences": {}
}